{
  "_format": "hh-sol-artifact-1",
  "contractName": "NFTERC721A",
  "sourceName": "contracts/NFTA721.sol",
  "abi": [
    {
      "inputs": [
        {
          "internalType": "address[]",
          "name": "_team",
          "type": "address[]"
        },
        {
          "internalType": "uint256[]",
          "name": "_teamShares",
          "type": "uint256[]"
        },
        {
          "internalType": "bytes32",
          "name": "_merkleRoot",
          "type": "bytes32"
        },
        {
          "internalType": "string",
          "name": "_baseURI",
          "type": "string"
        }
      ],
      "stateMutability": "nonpayable",
      "type": "constructor"
    },
    {
      "inputs": [],
      "name": "ApprovalCallerNotOwnerNorApproved",
      "type": "error"
    },
    {
      "inputs": [],
      "name": "ApprovalQueryForNonexistentToken",
      "type": "error"
    },
    {
      "inputs": [],
      "name": "ApprovalToCurrentOwner",
      "type": "error"
    },
    {
      "inputs": [],
      "name": "ApproveToCaller",
      "type": "error"
    },
    {
      "inputs": [],
      "name": "BalanceQueryForZeroAddress",
      "type": "error"
    },
    {
      "inputs": [],
      "name": "MintToZeroAddress",
      "type": "error"
    },
    {
      "inputs": [],
      "name": "MintZeroQuantity",
      "type": "error"
    },
    {
      "inputs": [],
      "name": "OwnerQueryForNonexistentToken",
      "type": "error"
    },
    {
      "inputs": [],
      "name": "TransferCallerNotOwnerNorApproved",
      "type": "error"
    },
    {
      "inputs": [],
      "name": "TransferFromIncorrectOwner",
      "type": "error"
    },
    {
      "inputs": [],
      "name": "TransferToNonERC721ReceiverImplementer",
      "type": "error"
    },
    {
      "inputs": [],
      "name": "TransferToZeroAddress",
      "type": "error"
    },
    {
      "inputs": [],
      "name": "URIQueryForNonexistentToken",
      "type": "error"
    },
    {
      "anonymous": false,
      "inputs": [
        {
          "indexed": true,
          "internalType": "address",
          "name": "owner",
          "type": "address"
        },
        {
          "indexed": true,
          "internalType": "address",
          "name": "approved",
          "type": "address"
        },
        {
          "indexed": true,
          "internalType": "uint256",
          "name": "tokenId",
          "type": "uint256"
        }
      ],
      "name": "Approval",
      "type": "event"
    },
    {
      "anonymous": false,
      "inputs": [
        {
          "indexed": true,
          "internalType": "address",
          "name": "owner",
          "type": "address"
        },
        {
          "indexed": true,
          "internalType": "address",
          "name": "operator",
          "type": "address"
        },
        {
          "indexed": false,
          "internalType": "bool",
          "name": "approved",
          "type": "bool"
        }
      ],
      "name": "ApprovalForAll",
      "type": "event"
    },
    {
      "anonymous": false,
      "inputs": [
        {
          "indexed": true,
          "internalType": "contract IERC20",
          "name": "token",
          "type": "address"
        },
        {
          "indexed": false,
          "internalType": "address",
          "name": "to",
          "type": "address"
        },
        {
          "indexed": false,
          "internalType": "uint256",
          "name": "amount",
          "type": "uint256"
        }
      ],
      "name": "ERC20PaymentReleased",
      "type": "event"
    },
    {
      "anonymous": false,
      "inputs": [
        {
          "indexed": true,
          "internalType": "address",
          "name": "previousOwner",
          "type": "address"
        },
        {
          "indexed": true,
          "internalType": "address",
          "name": "newOwner",
          "type": "address"
        }
      ],
      "name": "OwnershipTransferred",
      "type": "event"
    },
    {
      "anonymous": false,
      "inputs": [
        {
          "indexed": false,
          "internalType": "address",
          "name": "account",
          "type": "address"
        },
        {
          "indexed": false,
          "internalType": "uint256",
          "name": "shares",
          "type": "uint256"
        }
      ],
      "name": "PayeeAdded",
      "type": "event"
    },
    {
      "anonymous": false,
      "inputs": [
        {
          "indexed": false,
          "internalType": "address",
          "name": "from",
          "type": "address"
        },
        {
          "indexed": false,
          "internalType": "uint256",
          "name": "amount",
          "type": "uint256"
        }
      ],
      "name": "PaymentReceived",
      "type": "event"
    },
    {
      "anonymous": false,
      "inputs": [
        {
          "indexed": false,
          "internalType": "address",
          "name": "to",
          "type": "address"
        },
        {
          "indexed": false,
          "internalType": "uint256",
          "name": "amount",
          "type": "uint256"
        }
      ],
      "name": "PaymentReleased",
      "type": "event"
    },
    {
      "anonymous": false,
      "inputs": [
        {
          "indexed": true,
          "internalType": "address",
          "name": "from",
          "type": "address"
        },
        {
          "indexed": true,
          "internalType": "address",
          "name": "to",
          "type": "address"
        },
        {
          "indexed": true,
          "internalType": "uint256",
          "name": "tokenId",
          "type": "uint256"
        }
      ],
      "name": "Transfer",
      "type": "event"
    },
    {
      "inputs": [
        {
          "internalType": "address",
          "name": "",
          "type": "address"
        }
      ],
      "name": "amountNFTsperWalletWhitelistSale",
      "outputs": [
        {
          "internalType": "uint256",
          "name": "",
          "type": "uint256"
        }
      ],
      "stateMutability": "view",
      "type": "function"
    },
    {
      "inputs": [
        {
          "internalType": "address",
          "name": "to",
          "type": "address"
        },
        {
          "internalType": "uint256",
          "name": "tokenId",
          "type": "uint256"
        }
      ],
      "name": "approve",
      "outputs": [],
      "stateMutability": "nonpayable",
      "type": "function"
    },
    {
      "inputs": [
        {
          "internalType": "address",
          "name": "owner",
          "type": "address"
        }
      ],
      "name": "balanceOf",
      "outputs": [
        {
          "internalType": "uint256",
          "name": "",
          "type": "uint256"
        }
      ],
      "stateMutability": "view",
      "type": "function"
    },
    {
      "inputs": [],
      "name": "baseURI",
      "outputs": [
        {
          "internalType": "string",
          "name": "",
          "type": "string"
        }
      ],
      "stateMutability": "view",
      "type": "function"
    },
    {
      "inputs": [
        {
          "internalType": "uint256",
          "name": "tokenId",
          "type": "uint256"
        }
      ],
      "name": "getApproved",
      "outputs": [
        {
          "internalType": "address",
          "name": "",
          "type": "address"
        }
      ],
      "stateMutability": "view",
      "type": "function"
    },
    {
      "inputs": [
        {
          "internalType": "address",
          "name": "_to",
          "type": "address"
        },
        {
          "internalType": "uint256",
          "name": "_quantity",
          "type": "uint256"
        }
      ],
      "name": "gift",
      "outputs": [],
      "stateMutability": "nonpayable",
      "type": "function"
    },
    {
      "inputs": [
        {
          "internalType": "address",
          "name": "owner",
          "type": "address"
        },
        {
          "internalType": "address",
          "name": "operator",
          "type": "address"
        }
      ],
      "name": "isApprovedForAll",
      "outputs": [
        {
          "internalType": "bool",
          "name": "",
          "type": "bool"
        }
      ],
      "stateMutability": "view",
      "type": "function"
    },
    {
      "inputs": [],
      "name": "merkleRoot",
      "outputs": [
        {
          "internalType": "bytes32",
          "name": "",
          "type": "bytes32"
        }
      ],
      "stateMutability": "view",
      "type": "function"
    },
    {
      "inputs": [],
      "name": "name",
      "outputs": [
        {
          "internalType": "string",
          "name": "",
          "type": "string"
        }
      ],
      "stateMutability": "view",
      "type": "function"
    },
    {
      "inputs": [],
      "name": "owner",
      "outputs": [
        {
          "internalType": "address",
          "name": "",
          "type": "address"
        }
      ],
      "stateMutability": "view",
      "type": "function"
    },
    {
      "inputs": [
        {
          "internalType": "uint256",
          "name": "tokenId",
          "type": "uint256"
        }
      ],
      "name": "ownerOf",
      "outputs": [
        {
          "internalType": "address",
          "name": "",
          "type": "address"
        }
      ],
      "stateMutability": "view",
      "type": "function"
    },
    {
      "inputs": [
        {
          "internalType": "uint256",
          "name": "index",
          "type": "uint256"
        }
      ],
      "name": "payee",
      "outputs": [
        {
          "internalType": "address",
          "name": "",
          "type": "address"
        }
      ],
      "stateMutability": "view",
      "type": "function"
    },
    {
      "inputs": [
        {
          "internalType": "address",
          "name": "_account",
          "type": "address"
        },
        {
          "internalType": "uint256",
          "name": "_quantity",
          "type": "uint256"
        }
      ],
      "name": "publicSaleMint",
      "outputs": [],
      "stateMutability": "payable",
      "type": "function"
    },
    {
      "inputs": [],
      "name": "publicSalePrice",
      "outputs": [
        {
          "internalType": "uint256",
          "name": "",
          "type": "uint256"
        }
      ],
      "stateMutability": "view",
      "type": "function"
    },
    {
      "inputs": [
        {
          "internalType": "address payable",
          "name": "account",
          "type": "address"
        }
      ],
      "name": "release",
      "outputs": [],
      "stateMutability": "nonpayable",
      "type": "function"
    },
    {
      "inputs": [
        {
          "internalType": "contract IERC20",
          "name": "token",
          "type": "address"
        },
        {
          "internalType": "address",
          "name": "account",
          "type": "address"
        }
      ],
      "name": "release",
      "outputs": [],
      "stateMutability": "nonpayable",
      "type": "function"
    },
    {
      "inputs": [],
      "name": "releaseAll",
      "outputs": [],
      "stateMutability": "nonpayable",
      "type": "function"
    },
    {
      "inputs": [
        {
          "internalType": "contract IERC20",
          "name": "token",
          "type": "address"
        },
        {
          "internalType": "address",
          "name": "account",
          "type": "address"
        }
      ],
      "name": "released",
      "outputs": [
        {
          "internalType": "uint256",
          "name": "",
          "type": "uint256"
        }
      ],
      "stateMutability": "view",
      "type": "function"
    },
    {
      "inputs": [
        {
          "internalType": "address",
          "name": "account",
          "type": "address"
        }
      ],
      "name": "released",
      "outputs": [
        {
          "internalType": "uint256",
          "name": "",
          "type": "uint256"
        }
      ],
      "stateMutability": "view",
      "type": "function"
    },
    {
      "inputs": [],
      "name": "renounceOwnership",
      "outputs": [],
      "stateMutability": "nonpayable",
      "type": "function"
    },
    {
      "inputs": [
        {
          "internalType": "address",
          "name": "from",
          "type": "address"
        },
        {
          "internalType": "address",
          "name": "to",
          "type": "address"
        },
        {
          "internalType": "uint256",
          "name": "tokenId",
          "type": "uint256"
        }
      ],
      "name": "safeTransferFrom",
      "outputs": [],
      "stateMutability": "nonpayable",
      "type": "function"
    },
    {
      "inputs": [
        {
          "internalType": "address",
          "name": "from",
          "type": "address"
        },
        {
          "internalType": "address",
          "name": "to",
          "type": "address"
        },
        {
          "internalType": "uint256",
          "name": "tokenId",
          "type": "uint256"
        },
        {
          "internalType": "bytes",
          "name": "_data",
          "type": "bytes"
        }
      ],
      "name": "safeTransferFrom",
      "outputs": [],
      "stateMutability": "nonpayable",
      "type": "function"
    },
    {
      "inputs": [],
      "name": "saleStartTime",
      "outputs": [
        {
          "internalType": "uint256",
          "name": "",
          "type": "uint256"
        }
      ],
      "stateMutability": "view",
      "type": "function"
    },
    {
      "inputs": [],
      "name": "sellingStep",
      "outputs": [
        {
          "internalType": "enum NFTERC721A.Step",
          "name": "",
          "type": "uint8"
        }
      ],
      "stateMutability": "view",
      "type": "function"
    },
    {
      "inputs": [
        {
          "internalType": "address",
          "name": "operator",
          "type": "address"
        },
        {
          "internalType": "bool",
          "name": "approved",
          "type": "bool"
        }
      ],
      "name": "setApprovalForAll",
      "outputs": [],
      "stateMutability": "nonpayable",
      "type": "function"
    },
    {
      "inputs": [
        {
          "internalType": "string",
          "name": "_baseURI",
          "type": "string"
        }
      ],
      "name": "setBaseUri",
      "outputs": [],
      "stateMutability": "nonpayable",
      "type": "function"
    },
    {
      "inputs": [
        {
          "internalType": "bytes32",
          "name": "_merkleRoot",
          "type": "bytes32"
        }
      ],
      "name": "setMerkleRoot",
      "outputs": [],
      "stateMutability": "nonpayable",
      "type": "function"
    },
    {
      "inputs": [
        {
          "internalType": "uint256",
          "name": "_saleStartTime",
          "type": "uint256"
        }
      ],
      "name": "setSaleStartTime",
      "outputs": [],
      "stateMutability": "nonpayable",
      "type": "function"
    },
    {
      "inputs": [
        {
          "internalType": "uint256",
          "name": "_step",
          "type": "uint256"
        }
      ],
      "name": "setStep",
      "outputs": [],
      "stateMutability": "nonpayable",
      "type": "function"
    },
    {
      "inputs": [
        {
          "internalType": "address",
          "name": "account",
          "type": "address"
        }
      ],
      "name": "shares",
      "outputs": [
        {
          "internalType": "uint256",
          "name": "",
          "type": "uint256"
        }
      ],
      "stateMutability": "view",
      "type": "function"
    },
    {
      "inputs": [
        {
          "internalType": "bytes4",
          "name": "interfaceId",
          "type": "bytes4"
        }
      ],
      "name": "supportsInterface",
      "outputs": [
        {
          "internalType": "bool",
          "name": "",
          "type": "bool"
        }
      ],
      "stateMutability": "view",
      "type": "function"
    },
    {
      "inputs": [],
      "name": "symbol",
      "outputs": [
        {
          "internalType": "string",
          "name": "",
          "type": "string"
        }
      ],
      "stateMutability": "view",
      "type": "function"
    },
    {
      "inputs": [
        {
          "internalType": "uint256",
          "name": "_tokenId",
          "type": "uint256"
        }
      ],
      "name": "tokenURI",
      "outputs": [
        {
          "internalType": "string",
          "name": "",
          "type": "string"
        }
      ],
      "stateMutability": "view",
      "type": "function"
    },
    {
      "inputs": [
        {
          "internalType": "contract IERC20",
          "name": "token",
          "type": "address"
        }
      ],
      "name": "totalReleased",
      "outputs": [
        {
          "internalType": "uint256",
          "name": "",
          "type": "uint256"
        }
      ],
      "stateMutability": "view",
      "type": "function"
    },
    {
      "inputs": [],
      "name": "totalReleased",
      "outputs": [
        {
          "internalType": "uint256",
          "name": "",
          "type": "uint256"
        }
      ],
      "stateMutability": "view",
      "type": "function"
    },
    {
      "inputs": [],
      "name": "totalShares",
      "outputs": [
        {
          "internalType": "uint256",
          "name": "",
          "type": "uint256"
        }
      ],
      "stateMutability": "view",
      "type": "function"
    },
    {
      "inputs": [],
      "name": "totalSupply",
      "outputs": [
        {
          "internalType": "uint256",
          "name": "",
          "type": "uint256"
        }
      ],
      "stateMutability": "view",
      "type": "function"
    },
    {
      "inputs": [
        {
          "internalType": "address",
          "name": "from",
          "type": "address"
        },
        {
          "internalType": "address",
          "name": "to",
          "type": "address"
        },
        {
          "internalType": "uint256",
          "name": "tokenId",
          "type": "uint256"
        }
      ],
      "name": "transferFrom",
      "outputs": [],
      "stateMutability": "nonpayable",
      "type": "function"
    },
    {
      "inputs": [
        {
          "internalType": "address",
          "name": "newOwner",
          "type": "address"
        }
      ],
      "name": "transferOwnership",
      "outputs": [],
      "stateMutability": "nonpayable",
      "type": "function"
    },
    {
      "inputs": [
        {
          "internalType": "address",
          "name": "_account",
          "type": "address"
        },
        {
          "internalType": "uint256",
          "name": "_quantity",
          "type": "uint256"
        },
        {
          "internalType": "bytes32[]",
          "name": "_proof",
          "type": "bytes32[]"
        }
      ],
      "name": "whitelistMint",
      "outputs": [],
      "stateMutability": "payable",
      "type": "function"
    },
    {
      "inputs": [],
      "name": "wlSalePrice",
      "outputs": [
        {
          "internalType": "uint256",
          "name": "",
          "type": "uint256"
        }
      ],
      "stateMutability": "view",
      "type": "function"
    },
    {
      "stateMutability": "payable",
      "type": "receive"
    }
  ],
  "bytecode": "0x60806040526608e1bc9bf04000601255660aa87bee53800060135563622737306015553480156200002f57600080fd5b506040516200600c3803806200600c833981810160405281019062000055919062000a43565b83836040518060400160405280601481526020017f4e6f6d206465206c6120636f6c6c656374696f6e0000000000000000000000008152506040518060400160405280600681526020017f53594d424f4c0000000000000000000000000000000000000000000000000000815250620000e3620000d76200025f60201b60201c565b6200026760201b60201c565b8160039080519060200190620000fb9291906200056a565b508060049080519060200190620001149291906200056a565b50620001256200032b60201b60201c565b6001819055505050805182511462000174576040517f08c379a00000000000000000000000000000000000000000000000000000000081526004016200016b9062000b99565b60405180910390fd5b6000825111620001bb576040517f08c379a0000000000000000000000000000000000000000000000000000000008152600401620001b29062000c0b565b60405180910390fd5b60005b82518110156200022a5762000214838281518110620001e257620001e162000c2d565b5b60200260200101518383815181106200020057620001ff62000c2d565b5b60200260200101516200033060201b60201c565b8080620002219062000c8b565b915050620001be565b5050508160148190555080601090805190602001906200024c9291906200056a565b5083516017819055505050505062000f8c565b600033905090565b60008060009054906101000a900473ffffffffffffffffffffffffffffffffffffffff169050816000806101000a81548173ffffffffffffffffffffffffffffffffffffffff021916908373ffffffffffffffffffffffffffffffffffffffff1602179055508173ffffffffffffffffffffffffffffffffffffffff168173ffffffffffffffffffffffffffffffffffffffff167f8be0079c531659141344cd1fd0a4f28419497f9722a3daafe3b4186f6b6457e060405160405180910390a35050565b600090565b600073ffffffffffffffffffffffffffffffffffffffff168273ffffffffffffffffffffffffffffffffffffffff161415620003a3576040517f08c379a00000000000000000000000000000000000000000000000000000000081526004016200039a9062000d4f565b60405180910390fd5b60008111620003e9576040517f08c379a0000000000000000000000000000000000000000000000000000000008152600401620003e09062000dc1565b60405180910390fd5b6000600b60008473ffffffffffffffffffffffffffffffffffffffff1673ffffffffffffffffffffffffffffffffffffffff16815260200190815260200160002054146200046e576040517f08c379a0000000000000000000000000000000000000000000000000000000008152600401620004659062000e59565b60405180910390fd5b600d829080600181540180825580915050600190039060005260206000200160009091909190916101000a81548173ffffffffffffffffffffffffffffffffffffffff021916908373ffffffffffffffffffffffffffffffffffffffff16021790555080600b60008473ffffffffffffffffffffffffffffffffffffffff1673ffffffffffffffffffffffffffffffffffffffff168152602001908152602001600020819055508060095462000525919062000e7b565b6009819055507f40c340f65e17194d14ddddb073d3c9f888e3cb52b5aae0c6c7706b4fbc905fac82826040516200055e92919062000efa565b60405180910390a15050565b828054620005789062000f56565b90600052602060002090601f0160209004810192826200059c5760008555620005e8565b82601f10620005b757805160ff1916838001178555620005e8565b82800160010185558215620005e8579182015b82811115620005e7578251825591602001919060010190620005ca565b5b509050620005f79190620005fb565b5090565b5b8082111562000616576000816000905550600101620005fc565b5090565b6000604051905090565b600080fd5b600080fd5b600080fd5b6000601f19601f8301169050919050565b7f4e487b7100000000000000000000000000000000000000000000000000000000600052604160045260246000fd5b6200067e8262000633565b810181811067ffffffffffffffff82111715620006a0576200069f62000644565b5b80604052505050565b6000620006b56200061a565b9050620006c3828262000673565b919050565b600067ffffffffffffffff821115620006e657620006e562000644565b5b602082029050602081019050919050565b600080fd5b600073ffffffffffffffffffffffffffffffffffffffff82169050919050565b60006200072982620006fc565b9050919050565b6200073b816200071c565b81146200074757600080fd5b50565b6000815190506200075b8162000730565b92915050565b6000620007786200077284620006c8565b620006a9565b905080838252602082019050602084028301858111156200079e576200079d620006f7565b5b835b81811015620007cb5780620007b688826200074a565b845260208401935050602081019050620007a0565b5050509392505050565b600082601f830112620007ed57620007ec6200062e565b5b8151620007ff84826020860162000761565b91505092915050565b600067ffffffffffffffff82111562000826576200082562000644565b5b602082029050602081019050919050565b6000819050919050565b6200084c8162000837565b81146200085857600080fd5b50565b6000815190506200086c8162000841565b92915050565b600062000889620008838462000808565b620006a9565b90508083825260208201905060208402830185811115620008af57620008ae620006f7565b5b835b81811015620008dc5780620008c788826200085b565b845260208401935050602081019050620008b1565b5050509392505050565b600082601f830112620008fe57620008fd6200062e565b5b81516200091084826020860162000872565b91505092915050565b6000819050919050565b6200092e8162000919565b81146200093a57600080fd5b50565b6000815190506200094e8162000923565b92915050565b600080fd5b600067ffffffffffffffff82111562000977576200097662000644565b5b620009828262000633565b9050602081019050919050565b60005b83811015620009af57808201518184015260208101905062000992565b83811115620009bf576000848401525b50505050565b6000620009dc620009d68462000959565b620006a9565b905082815260208101848484011115620009fb57620009fa62000954565b5b62000a088482856200098f565b509392505050565b600082601f83011262000a285762000a276200062e565b5b815162000a3a848260208601620009c5565b91505092915050565b6000806000806080858703121562000a605762000a5f62000624565b5b600085015167ffffffffffffffff81111562000a815762000a8062000629565b5b62000a8f87828801620007d5565b945050602085015167ffffffffffffffff81111562000ab35762000ab262000629565b5b62000ac187828801620008e6565b935050604062000ad4878288016200093d565b925050606085015167ffffffffffffffff81111562000af85762000af762000629565b5b62000b068782880162000a10565b91505092959194509250565b600082825260208201905092915050565b7f5061796d656e7453706c69747465723a2070617965657320616e64207368617260008201527f6573206c656e677468206d69736d617463680000000000000000000000000000602082015250565b600062000b8160328362000b12565b915062000b8e8262000b23565b604082019050919050565b6000602082019050818103600083015262000bb48162000b72565b9050919050565b7f5061796d656e7453706c69747465723a206e6f20706179656573000000000000600082015250565b600062000bf3601a8362000b12565b915062000c008262000bbb565b602082019050919050565b6000602082019050818103600083015262000c268162000be4565b9050919050565b7f4e487b7100000000000000000000000000000000000000000000000000000000600052603260045260246000fd5b7f4e487b7100000000000000000000000000000000000000000000000000000000600052601160045260246000fd5b600062000c988262000837565b91507fffffffffffffffffffffffffffffffffffffffffffffffffffffffffffffffff82141562000cce5762000ccd62000c5c565b5b600182019050919050565b7f5061796d656e7453706c69747465723a206163636f756e74206973207468652060008201527f7a65726f20616464726573730000000000000000000000000000000000000000602082015250565b600062000d37602c8362000b12565b915062000d448262000cd9565b604082019050919050565b6000602082019050818103600083015262000d6a8162000d28565b9050919050565b7f5061796d656e7453706c69747465723a20736861726573206172652030000000600082015250565b600062000da9601d8362000b12565b915062000db68262000d71565b602082019050919050565b6000602082019050818103600083015262000ddc8162000d9a565b9050919050565b7f5061796d656e7453706c69747465723a206163636f756e7420616c726561647960008201527f2068617320736861726573000000000000000000000000000000000000000000602082015250565b600062000e41602b8362000b12565b915062000e4e8262000de3565b604082019050919050565b6000602082019050818103600083015262000e748162000e32565b9050919050565b600062000e888262000837565b915062000e958362000837565b9250827fffffffffffffffffffffffffffffffffffffffffffffffffffffffffffffffff0382111562000ecd5762000ecc62000c5c565b5b828201905092915050565b62000ee3816200071c565b82525050565b62000ef48162000837565b82525050565b600060408201905062000f11600083018562000ed8565b62000f20602083018462000ee9565b9392505050565b7f4e487b7100000000000000000000000000000000000000000000000000000000600052602260045260246000fd5b6000600282049050600182168062000f6f57607f821691505b6020821081141562000f865762000f8562000f27565b5b50919050565b6150708062000f9c6000396000f3fe60806040526004361061024a5760003560e01c8063734c66bd11610139578063ac5ae11b116100b6578063ce7c2ac21161007a578063ce7c2ac2146108b6578063d79779b2146108f3578063e33b7de314610930578063e985e9c51461095b578063f2fde38b14610998578063f8dcbddb146109c15761028a565b8063ac5ae11b146107e0578063b88d4fde146107fc578063c87b56dd14610825578063cbccefb214610862578063cbce4c971461088d5761028a565b80639852595c116100fd5780639852595c146106e957806399d13800146107265780639b6860c814610763578063a0bcfc7f1461078e578063a22cb465146107b75761028a565b8063734c66bd146106025780637cb647591461062d5780638b83209b146106565780638da5cb5b1461069357806395d89b41146106be5761028a565b8063406072a9116101c75780635be7fde81161018b5780635be7fde81461052f5780636352211e146105465780636c0360eb1461058357806370a08231146105ae578063715018a6146105eb5761028a565b8063406072a91461045b57806342842e0e1461049857806348b75044146104c15780634b11faaf146104ea578063525f8a5c146105065761028a565b8063191655871161020e57806319165587146103885780631cbaee2d146103b157806323b872dd146103dc5780632eb4a7ab146104055780633a98ef39146104305761028a565b806301ffc9a71461028f57806306fdde03146102cc578063081812fc146102f7578063095ea7b31461033457806318160ddd1461035d5761028a565b3661028a576040517f08c379a00000000000000000000000000000000000000000000000000000000081526004016102819061352c565b60405180910390fd5b600080fd5b34801561029b57600080fd5b506102b660048036038101906102b191906135b8565b6109ea565b6040516102c39190613600565b60405180910390f35b3480156102d857600080fd5b506102e1610a7c565b6040516102ee91906136a3565b60405180910390f35b34801561030357600080fd5b5061031e600480360381019061031991906136fb565b610b0e565b60405161032b9190613769565b60405180910390f35b34801561034057600080fd5b5061035b600480360381019061035691906137b0565b610b8a565b005b34801561036957600080fd5b50610372610ccb565b60405161037f91906137ff565b60405180910390f35b34801561039457600080fd5b506103af60048036038101906103aa9190613858565b610ce2565b005b3480156103bd57600080fd5b506103c6610e8d565b6040516103d391906137ff565b60405180910390f35b3480156103e857600080fd5b5061040360048036038101906103fe9190613885565b610e93565b005b34801561041157600080fd5b5061041a610ea3565b60405161042791906138f1565b60405180910390f35b34801561043c57600080fd5b50610445610ea9565b60405161045291906137ff565b60405180910390f35b34801561046757600080fd5b50610482600480360381019061047d919061394a565b610eb3565b60405161048f91906137ff565b60405180910390f35b3480156104a457600080fd5b506104bf60048036038101906104ba9190613885565b610f3a565b005b3480156104cd57600080fd5b506104e860048036038101906104e3919061394a565b610f5a565b005b61050460048036038101906104ff91906139ef565b611213565b005b34801561051257600080fd5b5061052d600480360381019061052891906136fb565b6115ca565b005b34801561053b57600080fd5b50610544611650565b005b34801561055257600080fd5b5061056d600480360381019061056891906136fb565b611684565b60405161057a9190613769565b60405180910390f35b34801561058f57600080fd5b50610598611696565b6040516105a591906136a3565b60405180910390f35b3480156105ba57600080fd5b506105d560048036038101906105d09190613a63565b611724565b6040516105e291906137ff565b60405180910390f35b3480156105f757600080fd5b506106006117b9565b005b34801561060e57600080fd5b50610617611841565b60405161062491906137ff565b60405180910390f35b34801561063957600080fd5b50610654600480360381019061064f9190613abc565b611847565b005b34801561066257600080fd5b5061067d600480360381019061067891906136fb565b6118cd565b60405161068a9190613769565b60405180910390f35b34801561069f57600080fd5b506106a8611915565b6040516106b59190613769565b60405180910390f35b3480156106ca57600080fd5b506106d361193e565b6040516106e091906136a3565b60405180910390f35b3480156106f557600080fd5b50610710600480360381019061070b9190613a63565b6119d0565b60405161071d91906137ff565b60405180910390f35b34801561073257600080fd5b5061074d60048036038101906107489190613a63565b611a19565b60405161075a91906137ff565b60405180910390f35b34801561076f57600080fd5b50610778611a31565b60405161078591906137ff565b60405180910390f35b34801561079a57600080fd5b506107b560048036038101906107b09190613c19565b611a37565b005b3480156107c357600080fd5b506107de60048036038101906107d99190613c8e565b611acd565b005b6107fa60048036038101906107f591906137b0565b611c45565b005b34801561080857600080fd5b50610823600480360381019061081e9190613d6f565b611e35565b005b34801561083157600080fd5b5061084c600480360381019061084791906136fb565b611ea8565b60405161085991906136a3565b60405180910390f35b34801561086e57600080fd5b50610877611f24565b6040516108849190613e69565b60405180910390f35b34801561089957600080fd5b506108b460048036038101906108af91906137b0565b611f37565b005b3480156108c257600080fd5b506108dd60048036038101906108d89190613a63565b61208e565b6040516108ea91906137ff565b60405180910390f35b3480156108ff57600080fd5b5061091a60048036038101906109159190613e84565b6120d7565b60405161092791906137ff565b60405180910390f35b34801561093c57600080fd5b50610945612120565b60405161095291906137ff565b60405180910390f35b34801561096757600080fd5b50610982600480360381019061097d9190613eb1565b61212a565b60405161098f9190613600565b60405180910390f35b3480156109a457600080fd5b506109bf60048036038101906109ba9190613a63565b6121be565b005b3480156109cd57600080fd5b506109e860048036038101906109e391906136fb565b6122b6565b005b60006301ffc9a760e01b827bffffffffffffffffffffffffffffffffffffffffffffffffffffffff19161480610a4557506380ac58cd60e01b827bffffffffffffffffffffffffffffffffffffffffffffffffffffffff1916145b80610a755750635b5e139f60e01b827bffffffffffffffffffffffffffffffffffffffffffffffffffffffff1916145b9050919050565b606060038054610a8b90613f20565b80601f0160208091040260200160405190810160405280929190818152602001828054610ab790613f20565b8015610b045780601f10610ad957610100808354040283529160200191610b04565b820191906000526020600020905b815481529060010190602001808311610ae757829003601f168201915b5050505050905090565b6000610b1982612371565b610b4f576040517fcf4700e400000000000000000000000000000000000000000000000000000000815260040160405180910390fd5b6007600083815260200190815260200160002060009054906101000a900473ffffffffffffffffffffffffffffffffffffffff169050919050565b6000610b95826123d0565b90508073ffffffffffffffffffffffffffffffffffffffff16610bb661249e565b73ffffffffffffffffffffffffffffffffffffffff1614610c1957610be281610bdd61249e565b61212a565b610c18576040517fcfb3b94200000000000000000000000000000000000000000000000000000000815260040160405180910390fd5b5b826007600084815260200190815260200160002060006101000a81548173ffffffffffffffffffffffffffffffffffffffff021916908373ffffffffffffffffffffffffffffffffffffffff160217905550818373ffffffffffffffffffffffffffffffffffffffff168273ffffffffffffffffffffffffffffffffffffffff167f8c5be1e5ebec7d5bd14f71427d1e84f3dd0314c0f7b2291e5b200ac8c7c3b92560405160405180910390a4505050565b6000610cd56124a6565b6002546001540303905090565b6000600b60008373ffffffffffffffffffffffffffffffffffffffff1673ffffffffffffffffffffffffffffffffffffffff1681526020019081526020016000205411610d64576040517f08c379a0000000000000000000000000000000000000000000000000000000008152600401610d5b90613fc4565b60405180910390fd5b6000610d6e612120565b47610d799190614013565b90506000610d908383610d8b866119d0565b6124ab565b90506000811415610dd6576040517f08c379a0000000000000000000000000000000000000000000000000000000008152600401610dcd906140db565b60405180910390fd5b80600c60008573ffffffffffffffffffffffffffffffffffffffff1673ffffffffffffffffffffffffffffffffffffffff1681526020019081526020016000206000828254610e259190614013565b9250508190555080600a6000828254610e3e9190614013565b92505081905550610e4f8382612519565b7fdf20fd1e76bc69d672e4814fafb2c449bba3a5369d8359adf9e05e6fde87b0568382604051610e8092919061415a565b60405180910390a1505050565b60155481565b610e9e83838361260d565b505050565b60145481565b6000600954905090565b6000600f60008473ffffffffffffffffffffffffffffffffffffffff1673ffffffffffffffffffffffffffffffffffffffff16815260200190815260200160002060008373ffffffffffffffffffffffffffffffffffffffff1673ffffffffffffffffffffffffffffffffffffffff16815260200190815260200160002054905092915050565b610f5583838360405180602001604052806000815250611e35565b505050565b6000600b60008373ffffffffffffffffffffffffffffffffffffffff1673ffffffffffffffffffffffffffffffffffffffff1681526020019081526020016000205411610fdc576040517f08c379a0000000000000000000000000000000000000000000000000000000008152600401610fd390613fc4565b60405180910390fd5b6000610fe7836120d7565b8373ffffffffffffffffffffffffffffffffffffffff166370a08231306040518263ffffffff1660e01b81526004016110209190613769565b602060405180830381865afa15801561103d573d6000803e3d6000fd5b505050506040513d601f19601f820116820180604052508101906110619190614198565b61106b9190614013565b90506000611083838361107e8787610eb3565b6124ab565b905060008114156110c9576040517f08c379a00000000000000000000000000000000000000000000000000000000081526004016110c0906140db565b60405180910390fd5b80600f60008673ffffffffffffffffffffffffffffffffffffffff1673ffffffffffffffffffffffffffffffffffffffff16815260200190815260200160002060008573ffffffffffffffffffffffffffffffffffffffff1673ffffffffffffffffffffffffffffffffffffffff16815260200190815260200160002060008282546111559190614013565b9250508190555080600e60008673ffffffffffffffffffffffffffffffffffffffff1673ffffffffffffffffffffffffffffffffffffffff16815260200190815260200160002060008282546111ab9190614013565b925050819055506111bd8484836129d5565b8373ffffffffffffffffffffffffffffffffffffffff167f3be5b7a71e84ed12875d241991c70855ac5817d847039e17a9d895c1ceb0f18a84836040516112059291906141c5565b60405180910390a250505050565b3373ffffffffffffffffffffffffffffffffffffffff163273ffffffffffffffffffffffffffffffffffffffff1614611281576040517f08c379a00000000000000000000000000000000000000000000000000000000081526004016112789061423a565b60405180910390fd5b6000601254905060008114156112cc576040517f08c379a00000000000000000000000000000000000000000000000000000000081526004016112c3906142a6565b60405180910390fd5b6015546112d7612a5b565b1015611318576040517f08c379a000000000000000000000000000000000000000000000000000000000815260040161130f90614338565b60405180910390fd5b6146506015546113289190614013565b611330612a5b565b10611370576040517f08c379a0000000000000000000000000000000000000000000000000000000008152600401611367906143a4565b60405180910390fd5b6001600481111561138457611383613df2565b5b601160009054906101000a900460ff1660048111156113a6576113a5613df2565b5b146113e6576040517f08c379a00000000000000000000000000000000000000000000000000000000081526004016113dd90614410565b60405180910390fd5b6113f1338484612a63565b611430576040517f08c379a00000000000000000000000000000000000000000000000000000000081526004016114279061447c565b60405180910390fd5b600184601660003373ffffffffffffffffffffffffffffffffffffffff1673ffffffffffffffffffffffffffffffffffffffff1681526020019081526020016000205461147d9190614013565b11156114be576040517f08c379a00000000000000000000000000000000000000000000000000000000081526004016114b59061450e565b60405180910390fd5b610ad9846114ca610ccb565b6114d49190614013565b1115611515576040517f08c379a000000000000000000000000000000000000000000000000000000000815260040161150c9061457a565b60405180910390fd5b8381611521919061459a565b341015611563576040517f08c379a000000000000000000000000000000000000000000000000000000000815260040161155a90614640565b60405180910390fd5b83601660003373ffffffffffffffffffffffffffffffffffffffff1673ffffffffffffffffffffffffffffffffffffffff16815260200190815260200160002060008282546115b29190614013565b925050819055506115c38585612ac1565b5050505050565b6115d2612adf565b73ffffffffffffffffffffffffffffffffffffffff166115f0611915565b73ffffffffffffffffffffffffffffffffffffffff1614611646576040517f08c379a000000000000000000000000000000000000000000000000000000000815260040161163d906146ac565b60405180910390fd5b8060158190555050565b60005b6017548110156116815761166e611669826118cd565b610ce2565b8080611679906146cc565b915050611653565b50565b600061168f826123d0565b9050919050565b601080546116a390613f20565b80601f01602080910402602001604051908101604052809291908181526020018280546116cf90613f20565b801561171c5780601f106116f15761010080835404028352916020019161171c565b820191906000526020600020905b8154815290600101906020018083116116ff57829003601f168201915b505050505081565b60008061173083612ae7565b1415611768576040517f8f4eb60400000000000000000000000000000000000000000000000000000000815260040160405180910390fd5b67ffffffffffffffff600660008473ffffffffffffffffffffffffffffffffffffffff1673ffffffffffffffffffffffffffffffffffffffff16815260200190815260200160002054169050919050565b6117c1612adf565b73ffffffffffffffffffffffffffffffffffffffff166117df611915565b73ffffffffffffffffffffffffffffffffffffffff1614611835576040517f08c379a000000000000000000000000000000000000000000000000000000000815260040161182c906146ac565b60405180910390fd5b61183f6000612af1565b565b60125481565b61184f612adf565b73ffffffffffffffffffffffffffffffffffffffff1661186d611915565b73ffffffffffffffffffffffffffffffffffffffff16146118c3576040517f08c379a00000000000000000000000000000000000000000000000000000000081526004016118ba906146ac565b60405180910390fd5b8060148190555050565b6000600d82815481106118e3576118e2614715565b5b9060005260206000200160009054906101000a900473ffffffffffffffffffffffffffffffffffffffff169050919050565b60008060009054906101000a900473ffffffffffffffffffffffffffffffffffffffff16905090565b60606004805461194d90613f20565b80601f016020809104026020016040519081016040528092919081815260200182805461197990613f20565b80156119c65780601f1061199b576101008083540402835291602001916119c6565b820191906000526020600020905b8154815290600101906020018083116119a957829003601f168201915b5050505050905090565b6000600c60008373ffffffffffffffffffffffffffffffffffffffff1673ffffffffffffffffffffffffffffffffffffffff168152602001908152602001600020549050919050565b60166020528060005260406000206000915090505481565b60135481565b611a3f612adf565b73ffffffffffffffffffffffffffffffffffffffff16611a5d611915565b73ffffffffffffffffffffffffffffffffffffffff1614611ab3576040517f08c379a0000000000000000000000000000000000000000000000000000000008152600401611aaa906146ac565b60405180910390fd5b8060109080519060200190611ac992919061342c565b5050565b611ad561249e565b73ffffffffffffffffffffffffffffffffffffffff168273ffffffffffffffffffffffffffffffffffffffff161415611b3a576040517fb06307db00000000000000000000000000000000000000000000000000000000815260040160405180910390fd5b8060086000611b4761249e565b73ffffffffffffffffffffffffffffffffffffffff1673ffffffffffffffffffffffffffffffffffffffff16815260200190815260200160002060008473ffffffffffffffffffffffffffffffffffffffff1673ffffffffffffffffffffffffffffffffffffffff16815260200190815260200160002060006101000a81548160ff0219169083151502179055508173ffffffffffffffffffffffffffffffffffffffff16611bf461249e565b73ffffffffffffffffffffffffffffffffffffffff167f17307eab39ab6107e8899845ad3d59bd9653f200f220920489ca2b5937696c3183604051611c399190613600565b60405180910390a35050565b3373ffffffffffffffffffffffffffffffffffffffff163273ffffffffffffffffffffffffffffffffffffffff1614611cb3576040517f08c379a0000000000000000000000000000000000000000000000000000000008152600401611caa9061423a565b60405180910390fd5b600060135490506000811415611cfe576040517f08c379a0000000000000000000000000000000000000000000000000000000008152600401611cf5906142a6565b60405180910390fd5b60026004811115611d1257611d11613df2565b5b601160009054906101000a900460ff166004811115611d3457611d33613df2565b5b14611d74576040517f08c379a0000000000000000000000000000000000000000000000000000000008152600401611d6b90614790565b60405180910390fd5b611324610ad9611d849190614013565b82611d8d610ccb565b611d979190614013565b1115611dd8576040517f08c379a0000000000000000000000000000000000000000000000000000000008152600401611dcf9061457a565b60405180910390fd5b8181611de4919061459a565b341015611e26576040517f08c379a0000000000000000000000000000000000000000000000000000000008152600401611e1d90614640565b60405180910390fd5b611e308383612ac1565b505050565b611e4084848461260d565b60008373ffffffffffffffffffffffffffffffffffffffff163b14611ea257611e6b84848484612bb5565b611ea1576040517fd1a57ed600000000000000000000000000000000000000000000000000000000815260040160405180910390fd5b5b50505050565b6060611eb382612371565b611ef2576040517f08c379a0000000000000000000000000000000000000000000000000000000008152600401611ee9906147fc565b60405180910390fd5b6010611efd83612d06565b604051602001611f0e929190614938565b6040516020818303038152906040529050919050565b601160009054906101000a900460ff1681565b611f3f612adf565b73ffffffffffffffffffffffffffffffffffffffff16611f5d611915565b73ffffffffffffffffffffffffffffffffffffffff1614611fb3576040517f08c379a0000000000000000000000000000000000000000000000000000000008152600401611faa906146ac565b60405180910390fd5b60026004811115611fc757611fc6613df2565b5b601160009054906101000a900460ff166004811115611fe957611fe8613df2565b5b11612029576040517f08c379a0000000000000000000000000000000000000000000000000000000008152600401612020906149b3565b60405180910390fd5b611e6181612035610ccb565b61203f9190614013565b1115612080576040517f08c379a000000000000000000000000000000000000000000000000000000000815260040161207790614a1f565b60405180910390fd5b61208a8282612ac1565b5050565b6000600b60008373ffffffffffffffffffffffffffffffffffffffff1673ffffffffffffffffffffffffffffffffffffffff168152602001908152602001600020549050919050565b6000600e60008373ffffffffffffffffffffffffffffffffffffffff1673ffffffffffffffffffffffffffffffffffffffff168152602001908152602001600020549050919050565b6000600a54905090565b6000600860008473ffffffffffffffffffffffffffffffffffffffff1673ffffffffffffffffffffffffffffffffffffffff16815260200190815260200160002060008373ffffffffffffffffffffffffffffffffffffffff1673ffffffffffffffffffffffffffffffffffffffff16815260200190815260200160002060009054906101000a900460ff16905092915050565b6121c6612adf565b73ffffffffffffffffffffffffffffffffffffffff166121e4611915565b73ffffffffffffffffffffffffffffffffffffffff161461223a576040517f08c379a0000000000000000000000000000000000000000000000000000000008152600401612231906146ac565b60405180910390fd5b600073ffffffffffffffffffffffffffffffffffffffff168173ffffffffffffffffffffffffffffffffffffffff1614156122aa576040517f08c379a00000000000000000000000000000000000000000000000000000000081526004016122a190614ab1565b60405180910390fd5b6122b381612af1565b50565b6122be612adf565b73ffffffffffffffffffffffffffffffffffffffff166122dc611915565b73ffffffffffffffffffffffffffffffffffffffff1614612332576040517f08c379a0000000000000000000000000000000000000000000000000000000008152600401612329906146ac565b60405180910390fd5b80600481111561234557612344613df2565b5b601160006101000a81548160ff0219169083600481111561236957612368613df2565b5b021790555050565b60008161237c6124a6565b1115801561238b575060015482105b80156123c9575060007c0100000000000000000000000000000000000000000000000000000000600560008581526020019081526020016000205416145b9050919050565b600080829050806123df6124a6565b11612467576001548110156124665760006005600083815260200190815260200160002054905060007c010000000000000000000000000000000000000000000000000000000082161415612464575b600081141561245a57600560008360019003935083815260200190815260200160002054905061242f565b8092505050612499565b505b5b6040517fdf2d9b4200000000000000000000000000000000000000000000000000000000815260040160405180910390fd5b919050565b600033905090565b600090565b600081600954600b60008773ffffffffffffffffffffffffffffffffffffffff1673ffffffffffffffffffffffffffffffffffffffff16815260200190815260200160002054856124fc919061459a565b6125069190614b00565b6125109190614b31565b90509392505050565b8047101561255c576040517f08c379a000000000000000000000000000000000000000000000000000000000815260040161255390614bb1565b60405180910390fd5b60008273ffffffffffffffffffffffffffffffffffffffff168260405161258290614c02565b60006040518083038185875af1925050503d80600081146125bf576040519150601f19603f3d011682016040523d82523d6000602084013e6125c4565b606091505b5050905080612608576040517f08c379a00000000000000000000000000000000000000000000000000000000081526004016125ff90614c89565b60405180910390fd5b505050565b6000612618826123d0565b90508373ffffffffffffffffffffffffffffffffffffffff168173ffffffffffffffffffffffffffffffffffffffff161461267f576040517fa114810000000000000000000000000000000000000000000000000000000000815260040160405180910390fd5b60006007600084815260200190815260200160002060009054906101000a900473ffffffffffffffffffffffffffffffffffffffff16905060008573ffffffffffffffffffffffffffffffffffffffff166126d861249e565b73ffffffffffffffffffffffffffffffffffffffff16148061270757506127068661270161249e565b61212a565b5b80612744575061271561249e565b73ffffffffffffffffffffffffffffffffffffffff168273ffffffffffffffffffffffffffffffffffffffff16145b90508061277d576040517f59c896be00000000000000000000000000000000000000000000000000000000815260040160405180910390fd5b600061278886612ae7565b14156127c0576040517fea553b3400000000000000000000000000000000000000000000000000000000815260040160405180910390fd5b6127cd8686866001612e67565b60006127d883612ae7565b14612814576007600085815260200190815260200160002060006101000a81549073ffffffffffffffffffffffffffffffffffffffff02191690555b600660008773ffffffffffffffffffffffffffffffffffffffff1673ffffffffffffffffffffffffffffffffffffffff168152602001908152602001600020600081546001900391905081905550600660008673ffffffffffffffffffffffffffffffffffffffff1673ffffffffffffffffffffffffffffffffffffffff16815260200190815260200160002060008154600101919050819055507c020000000000000000000000000000000000000000000000000000000060a042901b6128db87612ae7565b1717600560008681526020019081526020016000208190555060007c020000000000000000000000000000000000000000000000000000000084161415612965576000600185019050600060056000838152602001908152602001600020541415612963576001548114612962578360056000838152602001908152602001600020819055505b5b505b838573ffffffffffffffffffffffffffffffffffffffff168773ffffffffffffffffffffffffffffffffffffffff167fddf252ad1be2c89b69c2b068fc378daa952ba7f163c4a11628f55a4df523b3ef60405160405180910390a46129cd8686866001612e6d565b505050505050565b612a568363a9059cbb60e01b84846040516024016129f49291906141c5565b604051602081830303815290604052907bffffffffffffffffffffffffffffffffffffffffffffffffffffffff19166020820180517bffffffffffffffffffffffffffffffffffffffffffffffffffffffff8381831617835250505050612e73565b505050565b600042905090565b6000612ab8612a7185612f3a565b848480806020026020016040519081016040528093929190818152602001838360200280828437600081840152601f19601f82011690508083019250505050505050612f6a565b90509392505050565b612adb828260405180602001604052806000815250612f81565b5050565b600033905090565b6000819050919050565b60008060009054906101000a900473ffffffffffffffffffffffffffffffffffffffff169050816000806101000a81548173ffffffffffffffffffffffffffffffffffffffff021916908373ffffffffffffffffffffffffffffffffffffffff1602179055508173ffffffffffffffffffffffffffffffffffffffff168173ffffffffffffffffffffffffffffffffffffffff167f8be0079c531659141344cd1fd0a4f28419497f9722a3daafe3b4186f6b6457e060405160405180910390a35050565b60008373ffffffffffffffffffffffffffffffffffffffff1663150b7a02612bdb61249e565b8786866040518563ffffffff1660e01b8152600401612bfd9493929190614cfe565b6020604051808303816000875af1925050508015612c3957506040513d601f19601f82011682018060405250810190612c369190614d5f565b60015b612cb3573d8060008114612c69576040519150601f19603f3d011682016040523d82523d6000602084013e612c6e565b606091505b50600081511415612cab576040517fd1a57ed600000000000000000000000000000000000000000000000000000000815260040160405180910390fd5b805181602001fd5b63150b7a0260e01b7bffffffffffffffffffffffffffffffffffffffffffffffffffffffff1916817bffffffffffffffffffffffffffffffffffffffffffffffffffffffff191614915050949350505050565b60606000821415612d4e576040518060400160405280600181526020017f30000000000000000000000000000000000000000000000000000000000000008152509050612e62565b600082905060005b60008214612d80578080612d69906146cc565b915050600a82612d799190614b00565b9150612d56565b60008167ffffffffffffffff811115612d9c57612d9b613aee565b5b6040519080825280601f01601f191660200182016040528015612dce5781602001600182028036833780820191505090505b5090505b60008514612e5b57600182612de79190614b31565b9150600a85612df69190614d8c565b6030612e029190614013565b60f81b818381518110612e1857612e17614715565b5b60200101907effffffffffffffffffffffffffffffffffffffffffffffffffffffffffffff1916908160001a905350600a85612e549190614b00565b9450612dd2565b8093505050505b919050565b50505050565b50505050565b6000612ed5826040518060400160405280602081526020017f5361666545524332303a206c6f772d6c6576656c2063616c6c206661696c65648152508573ffffffffffffffffffffffffffffffffffffffff1661301f9092919063ffffffff16565b9050600081511115612f355780806020019051810190612ef59190614dd2565b612f34576040517f08c379a0000000000000000000000000000000000000000000000000000000008152600401612f2b90614e71565b60405180910390fd5b5b505050565b600081604051602001612f4d9190614ed9565b604051602081830303815290604052805190602001209050919050565b6000612f798260145485613037565b905092915050565b612f8b838361304e565b60008373ffffffffffffffffffffffffffffffffffffffff163b1461301a5760006001549050600083820390505b612fcc6000868380600101945086612bb5565b613002576040517fd1a57ed600000000000000000000000000000000000000000000000000000000815260040160405180910390fd5b818110612fb957816001541461301757600080fd5b50505b505050565b606061302e84846000856131f8565b90509392505050565b600082613044858461330c565b1490509392505050565b60006001549050600061306084612ae7565b1415613098576040517f2e07630000000000000000000000000000000000000000000000000000000000815260040160405180910390fd5b60008214156130d3576040517fb562e8dd00000000000000000000000000000000000000000000000000000000815260040160405180910390fd5b6130e06000848385612e67565b600160406001901b178202600660008573ffffffffffffffffffffffffffffffffffffffff1673ffffffffffffffffffffffffffffffffffffffff1681526020019081526020016000206000828254019250508190555060e161314560018414613381565b901b60a042901b61315585612ae7565b1717600560008381526020019081526020016000208190555060005b8080600101915082018473ffffffffffffffffffffffffffffffffffffffff16600073ffffffffffffffffffffffffffffffffffffffff167fddf252ad1be2c89b69c2b068fc378daa952ba7f163c4a11628f55a4df523b3ef60405160405180910390a482811061317157828201600181905550506131f36000848385612e6d565b505050565b60608247101561323d576040517f08c379a000000000000000000000000000000000000000000000000000000000815260040161323490614f66565b60405180910390fd5b6132468561338b565b613285576040517f08c379a000000000000000000000000000000000000000000000000000000000815260040161327c90614fd2565b60405180910390fd5b6000808673ffffffffffffffffffffffffffffffffffffffff1685876040516132ae9190615023565b60006040518083038185875af1925050503d80600081146132eb576040519150601f19603f3d011682016040523d82523d6000602084013e6132f0565b606091505b50915091506133008282866133ae565b92505050949350505050565b60008082905060005b845181101561337657600085828151811061333357613332614715565b5b602002602001015190508083116133555761334e8382613415565b9250613362565b61335f8184613415565b92505b50808061336e906146cc565b915050613315565b508091505092915050565b6000819050919050565b6000808273ffffffffffffffffffffffffffffffffffffffff163b119050919050565b606083156133be5782905061340e565b6000835111156133d15782518084602001fd5b816040517f08c379a000000000000000000000000000000000000000000000000000000000815260040161340591906136a3565b60405180910390fd5b9392505050565b600082600052816020526040600020905092915050565b82805461343890613f20565b90600052602060002090601f01602090048101928261345a57600085556134a1565b82601f1061347357805160ff19168380011785556134a1565b828001600101855582156134a1579182015b828111156134a0578251825591602001919060010190613485565b5b5090506134ae91906134b2565b5090565b5b808211156134cb5760008160009055506001016134b3565b5090565b600082825260208201905092915050565b7f4f6e6c7920696620796f75206d696e7400000000000000000000000000000000600082015250565b60006135166010836134cf565b9150613521826134e0565b602082019050919050565b6000602082019050818103600083015261354581613509565b9050919050565b6000604051905090565b600080fd5b600080fd5b60007fffffffff0000000000000000000000000000000000000000000000000000000082169050919050565b61359581613560565b81146135a057600080fd5b50565b6000813590506135b28161358c565b92915050565b6000602082840312156135ce576135cd613556565b5b60006135dc848285016135a3565b91505092915050565b60008115159050919050565b6135fa816135e5565b82525050565b600060208201905061361560008301846135f1565b92915050565b600081519050919050565b60005b83811015613644578082015181840152602081019050613629565b83811115613653576000848401525b50505050565b6000601f19601f8301169050919050565b60006136758261361b565b61367f81856134cf565b935061368f818560208601613626565b61369881613659565b840191505092915050565b600060208201905081810360008301526136bd818461366a565b905092915050565b6000819050919050565b6136d8816136c5565b81146136e357600080fd5b50565b6000813590506136f5816136cf565b92915050565b60006020828403121561371157613710613556565b5b600061371f848285016136e6565b91505092915050565b600073ffffffffffffffffffffffffffffffffffffffff82169050919050565b600061375382613728565b9050919050565b61376381613748565b82525050565b600060208201905061377e600083018461375a565b92915050565b61378d81613748565b811461379857600080fd5b50565b6000813590506137aa81613784565b92915050565b600080604083850312156137c7576137c6613556565b5b60006137d58582860161379b565b92505060206137e6858286016136e6565b9150509250929050565b6137f9816136c5565b82525050565b600060208201905061381460008301846137f0565b92915050565b600061382582613728565b9050919050565b6138358161381a565b811461384057600080fd5b50565b6000813590506138528161382c565b92915050565b60006020828403121561386e5761386d613556565b5b600061387c84828501613843565b91505092915050565b60008060006060848603121561389e5761389d613556565b5b60006138ac8682870161379b565b93505060206138bd8682870161379b565b92505060406138ce868287016136e6565b9150509250925092565b6000819050919050565b6138eb816138d8565b82525050565b600060208201905061390660008301846138e2565b92915050565b600061391782613748565b9050919050565b6139278161390c565b811461393257600080fd5b50565b6000813590506139448161391e565b92915050565b6000806040838503121561396157613960613556565b5b600061396f85828601613935565b92505060206139808582860161379b565b9150509250929050565b600080fd5b600080fd5b600080fd5b60008083601f8401126139af576139ae61398a565b5b8235905067ffffffffffffffff8111156139cc576139cb61398f565b5b6020830191508360208202830111156139e8576139e7613994565b5b9250929050565b60008060008060608587031215613a0957613a08613556565b5b6000613a178782880161379b565b9450506020613a28878288016136e6565b935050604085013567ffffffffffffffff811115613a4957613a4861355b565b5b613a5587828801613999565b925092505092959194509250565b600060208284031215613a7957613a78613556565b5b6000613a878482850161379b565b91505092915050565b613a99816138d8565b8114613aa457600080fd5b50565b600081359050613ab681613a90565b92915050565b600060208284031215613ad257613ad1613556565b5b6000613ae084828501613aa7565b91505092915050565b600080fd5b7f4e487b7100000000000000000000000000000000000000000000000000000000600052604160045260246000fd5b613b2682613659565b810181811067ffffffffffffffff82111715613b4557613b44613aee565b5b80604052505050565b6000613b5861354c565b9050613b648282613b1d565b919050565b600067ffffffffffffffff821115613b8457613b83613aee565b5b613b8d82613659565b9050602081019050919050565b82818337600083830152505050565b6000613bbc613bb784613b69565b613b4e565b905082815260208101848484011115613bd857613bd7613ae9565b5b613be3848285613b9a565b509392505050565b600082601f830112613c0057613bff61398a565b5b8135613c10848260208601613ba9565b91505092915050565b600060208284031215613c2f57613c2e613556565b5b600082013567ffffffffffffffff811115613c4d57613c4c61355b565b5b613c5984828501613beb565b91505092915050565b613c6b816135e5565b8114613c7657600080fd5b50565b600081359050613c8881613c62565b92915050565b60008060408385031215613ca557613ca4613556565b5b6000613cb38582860161379b565b9250506020613cc485828601613c79565b9150509250929050565b600067ffffffffffffffff821115613ce957613ce8613aee565b5b613cf282613659565b9050602081019050919050565b6000613d12613d0d84613cce565b613b4e565b905082815260208101848484011115613d2e57613d2d613ae9565b5b613d39848285613b9a565b509392505050565b600082601f830112613d5657613d5561398a565b5b8135613d66848260208601613cff565b91505092915050565b60008060008060808587031215613d8957613d88613556565b5b6000613d978782880161379b565b9450506020613da88782880161379b565b9350506040613db9878288016136e6565b925050606085013567ffffffffffffffff811115613dda57613dd961355b565b5b613de687828801613d41565b91505092959194509250565b7f4e487b7100000000000000000000000000000000000000000000000000000000600052602160045260246000fd5b60058110613e3257613e31613df2565b5b50565b6000819050613e4382613e21565b919050565b6000613e5382613e35565b9050919050565b613e6381613e48565b82525050565b6000602082019050613e7e6000830184613e5a565b92915050565b600060208284031215613e9a57613e99613556565b5b6000613ea884828501613935565b91505092915050565b60008060408385031215613ec857613ec7613556565b5b6000613ed68582860161379b565b9250506020613ee78582860161379b565b9150509250929050565b7f4e487b7100000000000000000000000000000000000000000000000000000000600052602260045260246000fd5b60006002820490506001821680613f3857607f821691505b60208210811415613f4c57613f4b613ef1565b5b50919050565b7f5061796d656e7453706c69747465723a206163636f756e7420686173206e6f2060008201527f7368617265730000000000000000000000000000000000000000000000000000602082015250565b6000613fae6026836134cf565b9150613fb982613f52565b604082019050919050565b60006020820190508181036000830152613fdd81613fa1565b9050919050565b7f4e487b7100000000000000000000000000000000000000000000000000000000600052601160045260246000fd5b600061401e826136c5565b9150614029836136c5565b9250827fffffffffffffffffffffffffffffffffffffffffffffffffffffffffffffffff0382111561405e5761405d613fe4565b5b828201905092915050565b7f5061796d656e7453706c69747465723a206163636f756e74206973206e6f742060008201527f647565207061796d656e74000000000000000000000000000000000000000000602082015250565b60006140c5602b836134cf565b91506140d082614069565b604082019050919050565b600060208201905081810360008301526140f4816140b8565b9050919050565b6000819050919050565b600061412061411b61411684613728565b6140fb565b613728565b9050919050565b600061413282614105565b9050919050565b600061414482614127565b9050919050565b61415481614139565b82525050565b600060408201905061416f600083018561414b565b61417c60208301846137f0565b9392505050565b600081519050614192816136cf565b92915050565b6000602082840312156141ae576141ad613556565b5b60006141bc84828501614183565b91505092915050565b60006040820190506141da600083018561375a565b6141e760208301846137f0565b9392505050565b7f5468652063616c6c657220697320616e6f7468657220636f6e74726163740000600082015250565b6000614224601e836134cf565b915061422f826141ee565b602082019050919050565b6000602082019050818103600083015261425381614217565b9050919050565b7f5072696365206973203000000000000000000000000000000000000000000000600082015250565b6000614290600a836134cf565b915061429b8261425a565b602082019050919050565b600060208201905081810360008301526142bf81614283565b9050919050565b7f57686974656c6973742053616c6520686173206e6f742073746172746564207960008201527f6574000000000000000000000000000000000000000000000000000000000000602082015250565b60006143226022836134cf565b915061432d826142c6565b604082019050919050565b6000602082019050818103600083015261435181614315565b9050919050565b7f57686974656c6973742053616c652069732066696e6973686564000000000000600082015250565b600061438e601a836134cf565b915061439982614358565b602082019050919050565b600060208201905081810360008301526143bd81614381565b9050919050565b7f57686974656c6973742073616c65206973206e6f742061637469766174656400600082015250565b60006143fa601f836134cf565b9150614405826143c4565b602082019050919050565b60006020820190508181036000830152614429816143ed565b9050919050565b7f4e6f742077686974656c69737465640000000000000000000000000000000000600082015250565b6000614466600f836134cf565b915061447182614430565b602082019050919050565b6000602082019050818103600083015261449581614459565b9050919050565b7f596f752063616e206f6e6c79206765742031204e4654206f6e2074686520576860008201527f6974656c6973742053616c650000000000000000000000000000000000000000602082015250565b60006144f8602c836134cf565b91506145038261449c565b604082019050919050565b60006020820190508181036000830152614527816144eb565b9050919050565b7f4d617820737570706c7920657863656564656400000000000000000000000000600082015250565b60006145646013836134cf565b915061456f8261452e565b602082019050919050565b6000602082019050818103600083015261459381614557565b9050919050565b60006145a5826136c5565b91506145b0836136c5565b9250817fffffffffffffffffffffffffffffffffffffffffffffffffffffffffffffffff04831182151516156145e9576145e8613fe4565b5b828202905092915050565b7f4e6f7420656e6f756768742066756e6473000000000000000000000000000000600082015250565b600061462a6011836134cf565b9150614635826145f4565b602082019050919050565b600060208201905081810360008301526146598161461d565b9050919050565b7f4f776e61626c653a2063616c6c6572206973206e6f7420746865206f776e6572600082015250565b60006146966020836134cf565b91506146a182614660565b602082019050919050565b600060208201905081810360008301526146c581614689565b9050919050565b60006146d7826136c5565b91507fffffffffffffffffffffffffffffffffffffffffffffffffffffffffffffffff82141561470a57614709613fe4565b5b600182019050919050565b7f4e487b7100000000000000000000000000000000000000000000000000000000600052603260045260246000fd5b7f5075626c69632073616c65206973206e6f742061637469766174656400000000600082015250565b600061477a601c836134cf565b915061478582614744565b602082019050919050565b600060208201905081810360008301526147a98161476d565b9050919050565b7f55524920717565727920666f72206e6f6e6578697374656e7420746f6b656e00600082015250565b60006147e6601f836134cf565b91506147f1826147b0565b602082019050919050565b60006020820190508181036000830152614815816147d9565b9050919050565b600081905092915050565b60008190508160005260206000209050919050565b6000815461484981613f20565b614853818661481c565b9450600182166000811461486e576001811461487f576148b2565b60ff198316865281860193506148b2565b61488885614827565b60005b838110156148aa5781548189015260018201915060208101905061488b565b838801955050505b50505092915050565b60006148c68261361b565b6148d0818561481c565b93506148e0818560208601613626565b80840191505092915050565b7f2e6a736f6e000000000000000000000000000000000000000000000000000000600082015250565b600061492260058361481c565b915061492d826148ec565b600582019050919050565b6000614944828561483c565b915061495082846148bb565b915061495b82614915565b91508190509392505050565b7f4769667420697320616674657220746865207075626c69632073616c65000000600082015250565b600061499d601d836134cf565b91506149a882614967565b602082019050919050565b600060208201905081810360008301526149cc81614990565b9050919050565b7f52656163686564206d617820537570706c790000000000000000000000000000600082015250565b6000614a096012836134cf565b9150614a14826149d3565b602082019050919050565b60006020820190508181036000830152614a38816149fc565b9050919050565b7f4f776e61626c653a206e6577206f776e657220697320746865207a65726f206160008201527f6464726573730000000000000000000000000000000000000000000000000000602082015250565b6000614a9b6026836134cf565b9150614aa682614a3f565b604082019050919050565b60006020820190508181036000830152614aca81614a8e565b9050919050565b7f4e487b7100000000000000000000000000000000000000000000000000000000600052601260045260246000fd5b6000614b0b826136c5565b9150614b16836136c5565b925082614b2657614b25614ad1565b5b828204905092915050565b6000614b3c826136c5565b9150614b47836136c5565b925082821015614b5a57614b59613fe4565b5b828203905092915050565b7f416464726573733a20696e73756666696369656e742062616c616e6365000000600082015250565b6000614b9b601d836134cf565b9150614ba682614b65565b602082019050919050565b60006020820190508181036000830152614bca81614b8e565b9050919050565b600081905092915050565b50565b6000614bec600083614bd1565b9150614bf782614bdc565b600082019050919050565b6000614c0d82614bdf565b9150819050919050565b7f416464726573733a20756e61626c6520746f2073656e642076616c75652c207260008201527f6563697069656e74206d61792068617665207265766572746564000000000000602082015250565b6000614c73603a836134cf565b9150614c7e82614c17565b604082019050919050565b60006020820190508181036000830152614ca281614c66565b9050919050565b600081519050919050565b600082825260208201905092915050565b6000614cd082614ca9565b614cda8185614cb4565b9350614cea818560208601613626565b614cf381613659565b840191505092915050565b6000608082019050614d13600083018761375a565b614d20602083018661375a565b614d2d60408301856137f0565b8181036060830152614d3f8184614cc5565b905095945050505050565b600081519050614d598161358c565b92915050565b600060208284031215614d7557614d74613556565b5b6000614d8384828501614d4a565b91505092915050565b6000614d97826136c5565b9150614da2836136c5565b925082614db257614db1614ad1565b5b828206905092915050565b600081519050614dcc81613c62565b92915050565b600060208284031215614de857614de7613556565b5b6000614df684828501614dbd565b91505092915050565b7f5361666545524332303a204552433230206f7065726174696f6e20646964206e60008201527f6f74207375636365656400000000000000000000000000000000000000000000602082015250565b6000614e5b602a836134cf565b9150614e6682614dff565b604082019050919050565b60006020820190508181036000830152614e8a81614e4e565b9050919050565b60008160601b9050919050565b6000614ea982614e91565b9050919050565b6000614ebb82614e9e565b9050919050565b614ed3614ece82613748565b614eb0565b82525050565b6000614ee58284614ec2565b60148201915081905092915050565b7f416464726573733a20696e73756666696369656e742062616c616e636520666f60008201527f722063616c6c0000000000000000000000000000000000000000000000000000602082015250565b6000614f506026836134cf565b9150614f5b82614ef4565b604082019050919050565b60006020820190508181036000830152614f7f81614f43565b9050919050565b7f416464726573733a2063616c6c20746f206e6f6e2d636f6e7472616374000000600082015250565b6000614fbc601d836134cf565b9150614fc782614f86565b602082019050919050565b60006020820190508181036000830152614feb81614faf565b9050919050565b6000614ffd82614ca9565b6150078185614bd1565b9350615017818560208601613626565b80840191505092915050565b600061502f8284614ff2565b91508190509291505056fea264697066735822122057f74c618e89c6eb95092caafdd28bf9fa772bff7a603ffff36ed917d3b2570c64736f6c634300080c0033",
  "linkReferences": {},
  "deployedLinkReferences": {}
}