{
  "_format": "hh-sol-artifact-1",
  "contractName": "yourNFT",
  "sourceName": "contracts/ERC721Mint.sol",
  "abi": [
    {
      "inputs": [
        {
          "internalType": "string",
          "name": "_name",
          "type": "string"
        },
        {
          "internalType": "string",
          "name": "_symbol",
          "type": "string"
        },
        {
          "internalType": "uint256",
          "name": "_minimuPrice",
          "type": "uint256"
        },
        {
          "internalType": "uint256",
          "name": "royalityFee",
          "type": "uint256"
        },
        {
          "internalType": "string",
          "name": "_initBaseURI",
          "type": "string"
        },
        {
          "internalType": "address[]",
          "name": "_artists",
          "type": "address[]"
        }
      ],
      "stateMutability": "nonpayable",
      "type": "constructor"
    },
    {
      "inputs": [],
      "name": "ApprovalCallerNotOwnerNorApproved",
      "type": "error"
    },
    {
      "inputs": [],
      "name": "ApprovalQueryForNonexistentToken",
      "type": "error"
    },
    {
      "inputs": [],
      "name": "ApprovalToCurrentOwner",
      "type": "error"
    },
    {
      "inputs": [],
      "name": "ApproveToCaller",
      "type": "error"
    },
    {
      "inputs": [],
      "name": "BalanceQueryForZeroAddress",
      "type": "error"
    },
    {
      "inputs": [],
      "name": "MintToZeroAddress",
      "type": "error"
    },
    {
      "inputs": [],
      "name": "MintZeroQuantity",
      "type": "error"
    },
    {
      "inputs": [],
      "name": "OwnerQueryForNonexistentToken",
      "type": "error"
    },
    {
      "inputs": [],
      "name": "TransferCallerNotOwnerNorApproved",
      "type": "error"
    },
    {
      "inputs": [],
      "name": "TransferFromIncorrectOwner",
      "type": "error"
    },
    {
      "inputs": [],
      "name": "TransferToNonERC721ReceiverImplementer",
      "type": "error"
    },
    {
      "inputs": [],
      "name": "TransferToZeroAddress",
      "type": "error"
    },
    {
      "inputs": [],
      "name": "URIQueryForNonexistentToken",
      "type": "error"
    },
    {
      "anonymous": false,
      "inputs": [
        {
          "indexed": true,
          "internalType": "address",
          "name": "owner",
          "type": "address"
        },
        {
          "indexed": true,
          "internalType": "address",
          "name": "approved",
          "type": "address"
        },
        {
          "indexed": true,
          "internalType": "uint256",
          "name": "tokenId",
          "type": "uint256"
        }
      ],
      "name": "Approval",
      "type": "event"
    },
    {
      "anonymous": false,
      "inputs": [
        {
          "indexed": true,
          "internalType": "address",
          "name": "owner",
          "type": "address"
        },
        {
          "indexed": true,
          "internalType": "address",
          "name": "operator",
          "type": "address"
        },
        {
          "indexed": false,
          "internalType": "bool",
          "name": "approved",
          "type": "bool"
        }
      ],
      "name": "ApprovalForAll",
      "type": "event"
    },
    {
      "anonymous": false,
      "inputs": [
        {
          "indexed": true,
          "internalType": "address",
          "name": "previousOwner",
          "type": "address"
        },
        {
          "indexed": true,
          "internalType": "address",
          "name": "newOwner",
          "type": "address"
        }
      ],
      "name": "OwnershipTransferred",
      "type": "event"
    },
    {
      "anonymous": false,
      "inputs": [
        {
          "indexed": false,
          "internalType": "uint256",
          "name": "tokenId",
          "type": "uint256"
        },
        {
          "components": [
            {
              "internalType": "address payable",
              "name": "account",
              "type": "address"
            },
            {
              "internalType": "uint96",
              "name": "value",
              "type": "uint96"
            }
          ],
          "indexed": false,
          "internalType": "struct LibPart.Part[]",
          "name": "royalties",
          "type": "tuple[]"
        }
      ],
      "name": "RoyaltiesSet",
      "type": "event"
    },
    {
      "anonymous": false,
      "inputs": [
        {
          "indexed": false,
          "internalType": "address",
          "name": "from",
          "type": "address"
        },
        {
          "indexed": false,
          "internalType": "address",
          "name": "to",
          "type": "address"
        },
        {
          "indexed": false,
          "internalType": "uint256",
          "name": "value",
          "type": "uint256"
        }
      ],
      "name": "Sale",
      "type": "event"
    },
    {
      "anonymous": false,
      "inputs": [
        {
          "indexed": true,
          "internalType": "address",
          "name": "from",
          "type": "address"
        },
        {
          "indexed": true,
          "internalType": "address",
          "name": "to",
          "type": "address"
        },
        {
          "indexed": true,
          "internalType": "uint256",
          "name": "tokenId",
          "type": "uint256"
        }
      ],
      "name": "Transfer",
      "type": "event"
    },
    {
      "inputs": [
        {
          "internalType": "address",
          "name": "from",
          "type": "address"
        },
        {
          "internalType": "address",
          "name": "to",
          "type": "address"
        }
      ],
      "name": "_payTxfree",
      "outputs": [],
      "stateMutability": "payable",
      "type": "function"
    },
    {
      "inputs": [],
      "name": "_royalityFee",
      "outputs": [
        {
          "internalType": "uint256",
          "name": "",
          "type": "uint256"
        }
      ],
      "stateMutability": "view",
      "type": "function"
    },
    {
      "inputs": [
        {
          "internalType": "address",
          "name": "to",
          "type": "address"
        },
        {
          "internalType": "uint256",
          "name": "tokenId",
          "type": "uint256"
        }
      ],
      "name": "approve",
      "outputs": [],
      "stateMutability": "nonpayable",
      "type": "function"
    },
    {
      "inputs": [
        {
          "internalType": "uint256",
          "name": "",
          "type": "uint256"
        }
      ],
      "name": "artists",
      "outputs": [
        {
          "internalType": "address",
          "name": "",
          "type": "address"
        }
      ],
      "stateMutability": "view",
      "type": "function"
    },
    {
      "inputs": [
        {
          "internalType": "address",
          "name": "owner",
          "type": "address"
        }
      ],
      "name": "balanceOf",
      "outputs": [
        {
          "internalType": "uint256",
          "name": "",
          "type": "uint256"
        }
      ],
      "stateMutability": "view",
      "type": "function"
    },
    {
      "inputs": [],
      "name": "baseExtension",
      "outputs": [
        {
          "internalType": "string",
          "name": "",
          "type": "string"
        }
      ],
      "stateMutability": "view",
      "type": "function"
    },
    {
      "inputs": [],
      "name": "baseURI",
      "outputs": [
        {
          "internalType": "string",
          "name": "",
          "type": "string"
        }
      ],
      "stateMutability": "view",
      "type": "function"
    },
    {
      "inputs": [
        {
          "internalType": "uint256",
          "name": "tokenId",
          "type": "uint256"
        },
        {
          "internalType": "uint256",
          "name": "value",
          "type": "uint256"
        }
      ],
      "name": "checkTokenRoyaltics",
      "outputs": [
        {
          "internalType": "uint256",
          "name": "artistsValue",
          "type": "uint256"
        }
      ],
      "stateMutability": "pure",
      "type": "function"
    },
    {
      "inputs": [
        {
          "internalType": "uint256",
          "name": "tokenId",
          "type": "uint256"
        }
      ],
      "name": "getApproved",
      "outputs": [
        {
          "internalType": "address",
          "name": "",
          "type": "address"
        }
      ],
      "stateMutability": "view",
      "type": "function"
    },
    {
      "inputs": [
        {
          "internalType": "uint256",
          "name": "id",
          "type": "uint256"
        }
      ],
      "name": "getRaribleV2Royalties",
      "outputs": [
        {
          "components": [
            {
              "internalType": "address payable",
              "name": "account",
              "type": "address"
            },
            {
              "internalType": "uint96",
              "name": "value",
              "type": "uint96"
            }
          ],
          "internalType": "struct LibPart.Part[]",
          "name": "",
          "type": "tuple[]"
        }
      ],
      "stateMutability": "view",
      "type": "function"
    },
    {
      "inputs": [
        {
          "internalType": "address",
          "name": "owner",
          "type": "address"
        },
        {
          "internalType": "address",
          "name": "operator",
          "type": "address"
        }
      ],
      "name": "isApprovedForAll",
      "outputs": [
        {
          "internalType": "bool",
          "name": "",
          "type": "bool"
        }
      ],
      "stateMutability": "view",
      "type": "function"
    },
    {
      "inputs": [
        {
          "internalType": "address",
          "name": "sender",
          "type": "address"
        }
      ],
      "name": "isArtist",
      "outputs": [
        {
          "internalType": "bool",
          "name": "",
          "type": "bool"
        }
      ],
      "stateMutability": "view",
      "type": "function"
    },
    {
      "inputs": [],
      "name": "maxSupply",
      "outputs": [
        {
          "internalType": "uint256",
          "name": "",
          "type": "uint256"
        }
      ],
      "stateMutability": "view",
      "type": "function"
    },
    {
      "inputs": [],
      "name": "minimuPrice",
      "outputs": [
        {
          "internalType": "uint256",
          "name": "",
          "type": "uint256"
        }
      ],
      "stateMutability": "view",
      "type": "function"
    },
    {
      "inputs": [
        {
          "internalType": "address",
          "name": "from",
          "type": "address"
        },
        {
          "internalType": "uint256",
          "name": "amount",
          "type": "uint256"
        }
      ],
      "name": "mint",
      "outputs": [],
      "stateMutability": "nonpayable",
      "type": "function"
    },
    {
      "inputs": [],
      "name": "name",
      "outputs": [
        {
          "internalType": "string",
          "name": "",
          "type": "string"
        }
      ],
      "stateMutability": "view",
      "type": "function"
    },
    {
      "inputs": [],
      "name": "owner",
      "outputs": [
        {
          "internalType": "address",
          "name": "",
          "type": "address"
        }
      ],
      "stateMutability": "view",
      "type": "function"
    },
    {
      "inputs": [
        {
          "internalType": "uint256",
          "name": "tokenId",
          "type": "uint256"
        }
      ],
      "name": "ownerOf",
      "outputs": [
        {
          "internalType": "address",
          "name": "",
          "type": "address"
        }
      ],
      "stateMutability": "view",
      "type": "function"
    },
    {
      "inputs": [],
      "name": "renounceOwnership",
      "outputs": [],
      "stateMutability": "nonpayable",
      "type": "function"
    },
    {
      "inputs": [],
      "name": "revealed",
      "outputs": [
        {
          "internalType": "bool",
          "name": "",
          "type": "bool"
        }
      ],
      "stateMutability": "view",
      "type": "function"
    },
    {
      "inputs": [
        {
          "internalType": "uint256",
          "name": "id",
          "type": "uint256"
        },
        {
          "internalType": "uint256",
          "name": "_salePrice",
          "type": "uint256"
        }
      ],
      "name": "royaltyInfo",
      "outputs": [
        {
          "internalType": "address",
          "name": "receiver",
          "type": "address"
        },
        {
          "internalType": "uint256",
          "name": "royaltyAmount",
          "type": "uint256"
        }
      ],
      "stateMutability": "view",
      "type": "function"
    },
    {
      "inputs": [
        {
          "internalType": "address",
          "name": "from",
          "type": "address"
        },
        {
          "internalType": "address",
          "name": "to",
          "type": "address"
        },
        {
          "internalType": "uint256",
          "name": "tokenId",
          "type": "uint256"
        }
      ],
      "name": "safeTransferFrom",
      "outputs": [],
      "stateMutability": "nonpayable",
      "type": "function"
    },
    {
      "inputs": [
        {
          "internalType": "address",
          "name": "from",
          "type": "address"
        },
        {
          "internalType": "address",
          "name": "to",
          "type": "address"
        },
        {
          "internalType": "uint256",
          "name": "tokenId",
          "type": "uint256"
        },
        {
          "internalType": "bytes",
          "name": "_data",
          "type": "bytes"
        }
      ],
      "name": "safeTransferFrom",
      "outputs": [],
      "stateMutability": "nonpayable",
      "type": "function"
    },
    {
      "inputs": [],
      "name": "seeArtictsArray",
      "outputs": [
        {
          "internalType": "address[]",
          "name": "",
          "type": "address[]"
        }
      ],
      "stateMutability": "view",
      "type": "function"
    },
    {
      "inputs": [
        {
          "internalType": "address",
          "name": "operator",
          "type": "address"
        },
        {
          "internalType": "bool",
          "name": "approved",
          "type": "bool"
        }
      ],
      "name": "setApprovalForAll",
      "outputs": [],
      "stateMutability": "nonpayable",
      "type": "function"
    },
    {
      "inputs": [
        {
          "internalType": "uint256",
          "name": "_cost",
          "type": "uint256"
        }
      ],
      "name": "setCost",
      "outputs": [],
      "stateMutability": "nonpayable",
      "type": "function"
    },
    {
      "inputs": [
        {
          "internalType": "bool",
          "name": "_state",
          "type": "bool"
        }
      ],
      "name": "setRevealed",
      "outputs": [],
      "stateMutability": "nonpayable",
      "type": "function"
    },
    {
      "inputs": [
        {
          "internalType": "bytes4",
          "name": "interfaceId",
          "type": "bytes4"
        }
      ],
      "name": "supportsInterface",
      "outputs": [
        {
          "internalType": "bool",
          "name": "",
          "type": "bool"
        }
      ],
      "stateMutability": "view",
      "type": "function"
    },
    {
      "inputs": [],
      "name": "symbol",
      "outputs": [
        {
          "internalType": "string",
          "name": "",
          "type": "string"
        }
      ],
      "stateMutability": "view",
      "type": "function"
    },
    {
      "inputs": [
        {
          "internalType": "uint256",
          "name": "_tokenId",
          "type": "uint256"
        }
      ],
      "name": "tokenURI",
      "outputs": [
        {
          "internalType": "string",
          "name": "",
          "type": "string"
        }
      ],
      "stateMutability": "view",
      "type": "function"
    },
    {
      "inputs": [],
      "name": "totalSupply",
      "outputs": [
        {
          "internalType": "uint256",
          "name": "",
          "type": "uint256"
        }
      ],
      "stateMutability": "view",
      "type": "function"
    },
    {
      "inputs": [
        {
          "internalType": "address",
          "name": "from",
          "type": "address"
        },
        {
          "internalType": "address",
          "name": "to",
          "type": "address"
        },
        {
          "internalType": "uint256",
          "name": "tokenId",
          "type": "uint256"
        }
      ],
      "name": "transferFrom",
      "outputs": [],
      "stateMutability": "nonpayable",
      "type": "function"
    },
    {
      "inputs": [
        {
          "internalType": "address",
          "name": "newOwner",
          "type": "address"
        }
      ],
      "name": "transferOwnership",
      "outputs": [],
      "stateMutability": "nonpayable",
      "type": "function"
    },
    {
      "inputs": [],
      "name": "txFreeToken",
      "outputs": [
        {
          "internalType": "address",
          "name": "",
          "type": "address"
        }
      ],
      "stateMutability": "view",
      "type": "function"
    },
    {
      "inputs": [],
      "name": "withdrawMoney",
      "outputs": [],
      "stateMutability": "nonpayable",
      "type": "function"
    }
  ],
  "bytecode": "0x60806040526040518060400160405280600581526020017f2e6a736f6e000000000000000000000000000000000000000000000000000000815250601190805190602001906200005192919062000306565b506127106012556000601360006101000a81548160ff0219169083151502179055503480156200008057600080fd5b5060405162004078380380620040788339818101604052810190620000a691906200075d565b85858160029080519060200190620000c092919062000306565b508060039080519060200190620000d992919062000306565b50620000ea6200017060201b60201c565b600081905550505062000112620001066200017560201b60201c565b6200017d60201b60201c565b600160098190555081601090805190602001906200013292919062000306565b5082600e8190555080600c90805190602001906200015292919062000397565b5062000164846200024360201b60201c565b5050505050506200095d565b600090565b600033905090565b6000600860009054906101000a900473ffffffffffffffffffffffffffffffffffffffff16905081600860006101000a81548173ffffffffffffffffffffffffffffffffffffffff021916908373ffffffffffffffffffffffffffffffffffffffff1602179055508173ffffffffffffffffffffffffffffffffffffffff168173ffffffffffffffffffffffffffffffffffffffff167f8be0079c531659141344cd1fd0a4f28419497f9722a3daafe3b4186f6b6457e060405160405180910390a35050565b620002536200017560201b60201c565b73ffffffffffffffffffffffffffffffffffffffff1662000279620002dc60201b60201c565b73ffffffffffffffffffffffffffffffffffffffff1614620002d2576040517f08c379a0000000000000000000000000000000000000000000000000000000008152600401620002c990620008d6565b60405180910390fd5b80600f8190555050565b6000600860009054906101000a900473ffffffffffffffffffffffffffffffffffffffff16905090565b828054620003149062000927565b90600052602060002090601f01602090048101928262000338576000855562000384565b82601f106200035357805160ff191683800117855562000384565b8280016001018555821562000384579182015b828111156200038357825182559160200191906001019062000366565b5b50905062000393919062000426565b5090565b82805482825590600052602060002090810192821562000413579160200282015b82811115620004125782518260006101000a81548173ffffffffffffffffffffffffffffffffffffffff021916908373ffffffffffffffffffffffffffffffffffffffff16021790555091602001919060010190620003b8565b5b50905062000422919062000426565b5090565b5b808211156200044157600081600090555060010162000427565b5090565b6000604051905090565b600080fd5b600080fd5b600080fd5b600080fd5b6000601f19601f8301169050919050565b7f4e487b7100000000000000000000000000000000000000000000000000000000600052604160045260246000fd5b620004ae8262000463565b810181811067ffffffffffffffff82111715620004d057620004cf62000474565b5b80604052505050565b6000620004e562000445565b9050620004f38282620004a3565b919050565b600067ffffffffffffffff82111562000516576200051562000474565b5b620005218262000463565b9050602081019050919050565b60005b838110156200054e57808201518184015260208101905062000531565b838111156200055e576000848401525b50505050565b60006200057b6200057584620004f8565b620004d9565b9050828152602081018484840111156200059a57620005996200045e565b5b620005a78482856200052e565b509392505050565b600082601f830112620005c757620005c662000459565b5b8151620005d984826020860162000564565b91505092915050565b6000819050919050565b620005f781620005e2565b81146200060357600080fd5b50565b6000815190506200061781620005ec565b92915050565b600067ffffffffffffffff8211156200063b576200063a62000474565b5b602082029050602081019050919050565b600080fd5b600073ffffffffffffffffffffffffffffffffffffffff82169050919050565b60006200067e8262000651565b9050919050565b620006908162000671565b81146200069c57600080fd5b50565b600081519050620006b08162000685565b92915050565b6000620006cd620006c7846200061d565b620004d9565b90508083825260208201905060208402830185811115620006f357620006f26200064c565b5b835b818110156200072057806200070b88826200069f565b845260208401935050602081019050620006f5565b5050509392505050565b600082601f83011262000742576200074162000459565b5b815162000754848260208601620006b6565b91505092915050565b60008060008060008060c087890312156200077d576200077c6200044f565b5b600087015167ffffffffffffffff8111156200079e576200079d62000454565b5b620007ac89828a01620005af565b965050602087015167ffffffffffffffff811115620007d057620007cf62000454565b5b620007de89828a01620005af565b9550506040620007f189828a0162000606565b94505060606200080489828a0162000606565b935050608087015167ffffffffffffffff81111562000828576200082762000454565b5b6200083689828a01620005af565b92505060a087015167ffffffffffffffff8111156200085a576200085962000454565b5b6200086889828a016200072a565b9150509295509295509295565b600082825260208201905092915050565b7f4f776e61626c653a2063616c6c6572206973206e6f7420746865206f776e6572600082015250565b6000620008be60208362000875565b9150620008cb8262000886565b602082019050919050565b60006020820190508181036000830152620008f181620008af565b9050919050565b7f4e487b7100000000000000000000000000000000000000000000000000000000600052602260045260246000fd5b600060028204905060018216806200094057607f821691505b60208210811415620009575762000956620008f8565b5b50919050565b61370b806200096d6000396000f3fe6080604052600436106102045760003560e01c8063715018a611610118578063c87b56dd116100a0578063d5abeb011161006f578063d5abeb0114610783578063e0a80853146107ae578063e985e9c5146107d7578063f2fde38b14610814578063fd6d78a81461083d57610204565b8063c87b56dd146106b0578063cad96cca146106ed578063cc3d93c51461072a578063cd7e10c11461074657610204565b8063a22cb465116100e7578063a22cb465146105f1578063ac4460021461061a578063aed177a614610631578063b88d4fde1461065c578063c66828621461068557610204565b8063715018a614610547578063886a2ae21461055e5780638da5cb5b1461059b57806395d89b41146105c657610204565b806342842e0e1161019b5780636352211e1161016a5780636352211e1461043a5780636b2f65b0146104775780636c0360eb146104b45780636fdb765f146104df57806370a082311461050a57610204565b806342842e0e1461039257806344a0d68a146103bb57806351830227146103e457806353e4bfc21461040f57610204565b806318160ddd116101d757806318160ddd146102d757806323b872dd146103025780632a55205a1461032b57806340c10f191461036957610204565b806301ffc9a71461020957806306fdde0314610246578063081812fc14610271578063095ea7b3146102ae575b600080fd5b34801561021557600080fd5b50610230600480360381019061022b9190612738565b610868565b60405161023d9190612780565b60405180910390f35b34801561025257600080fd5b5061025b6108fa565b6040516102689190612834565b60405180910390f35b34801561027d57600080fd5b506102986004803603810190610293919061288c565b61098c565b6040516102a591906128fa565b60405180910390f35b3480156102ba57600080fd5b506102d560048036038101906102d09190612941565b610a08565b005b3480156102e357600080fd5b506102ec610baf565b6040516102f99190612990565b60405180910390f35b34801561030e57600080fd5b50610329600480360381019061032491906129ab565b610bc6565b005b34801561033757600080fd5b50610352600480360381019061034d91906129fe565b610bd6565b604051610360929190612a3e565b60405180910390f35b34801561037557600080fd5b50610390600480360381019061038b9190612941565b610da8565b005b34801561039e57600080fd5b506103b960048036038101906103b491906129ab565b610df8565b005b3480156103c757600080fd5b506103e260048036038101906103dd919061288c565b610e28565b005b3480156103f057600080fd5b506103f9610eae565b6040516104069190612780565b60405180910390f35b34801561041b57600080fd5b50610424610ec1565b60405161043191906128fa565b60405180910390f35b34801561044657600080fd5b50610461600480360381019061045c919061288c565b610ee7565b60405161046e91906128fa565b60405180910390f35b34801561048357600080fd5b5061049e60048036038101906104999190612a67565b610ef9565b6040516104ab9190612780565b60405180910390f35b3480156104c057600080fd5b506104c9610fa4565b6040516104d69190612834565b60405180910390f35b3480156104eb57600080fd5b506104f4611032565b6040516105019190612b52565b60405180910390f35b34801561051657600080fd5b50610531600480360381019061052c9190612a67565b6110c0565b60405161053e9190612990565b60405180910390f35b34801561055357600080fd5b5061055c611179565b005b34801561056a57600080fd5b50610585600480360381019061058091906129fe565b611201565b6040516105929190612990565b60405180910390f35b3480156105a757600080fd5b506105b0611209565b6040516105bd91906128fa565b60405180910390f35b3480156105d257600080fd5b506105db611233565b6040516105e89190612834565b60405180910390f35b3480156105fd57600080fd5b5061061860048036038101906106139190612ba0565b6112c5565b005b34801561062657600080fd5b5061062f61143d565b005b34801561063d57600080fd5b506106466115be565b6040516106539190612990565b60405180910390f35b34801561066857600080fd5b50610683600480360381019061067e9190612d15565b6115c4565b005b34801561069157600080fd5b5061069a611637565b6040516106a79190612834565b60405180910390f35b3480156106bc57600080fd5b506106d760048036038101906106d2919061288c565b6116c5565b6040516106e49190612834565b60405180910390f35b3480156106f957600080fd5b50610714600480360381019061070f919061288c565b611796565b6040516107219190612ebe565b60405180910390f35b610744600480360381019061073f9190612ee0565b611898565b005b34801561075257600080fd5b5061076d6004803603810190610768919061288c565b611992565b60405161077a91906128fa565b60405180910390f35b34801561078f57600080fd5b506107986119d1565b6040516107a59190612990565b60405180910390f35b3480156107ba57600080fd5b506107d560048036038101906107d09190612f20565b6119d7565b005b3480156107e357600080fd5b506107fe60048036038101906107f99190612ee0565b611a70565b60405161080b9190612780565b60405180910390f35b34801561082057600080fd5b5061083b60048036038101906108369190612a67565b611b04565b005b34801561084957600080fd5b50610852611bfc565b60405161085f9190612990565b60405180910390f35b60006301ffc9a760e01b827bffffffffffffffffffffffffffffffffffffffffffffffffffffffff191614806108c357506380ac58cd60e01b827bffffffffffffffffffffffffffffffffffffffffffffffffffffffff1916145b806108f35750635b5e139f60e01b827bffffffffffffffffffffffffffffffffffffffffffffffffffffffff1916145b9050919050565b60606002805461090990612f7c565b80601f016020809104026020016040519081016040528092919081815260200182805461093590612f7c565b80156109825780601f1061095757610100808354040283529160200191610982565b820191906000526020600020905b81548152906001019060200180831161096557829003601f168201915b5050505050905090565b600061099782611c02565b6109cd576040517fcf4700e400000000000000000000000000000000000000000000000000000000815260040160405180910390fd5b6006600083815260200190815260200160002060009054906101000a900473ffffffffffffffffffffffffffffffffffffffff169050919050565b6000610a1382611c61565b90508073ffffffffffffffffffffffffffffffffffffffff168373ffffffffffffffffffffffffffffffffffffffff161415610a7b576040517f943f7b8c00000000000000000000000000000000000000000000000000000000815260040160405180910390fd5b8073ffffffffffffffffffffffffffffffffffffffff16610a9a611d2f565b73ffffffffffffffffffffffffffffffffffffffff1614610afd57610ac681610ac1611d2f565b611a70565b610afc576040517fcfb3b94200000000000000000000000000000000000000000000000000000000815260040160405180910390fd5b5b826006600084815260200190815260200160002060006101000a81548173ffffffffffffffffffffffffffffffffffffffff021916908373ffffffffffffffffffffffffffffffffffffffff160217905550818373ffffffffffffffffffffffffffffffffffffffff168273ffffffffffffffffffffffffffffffffffffffff167f8c5be1e5ebec7d5bd14f71427d1e84f3dd0314c0f7b2291e5b200ac8c7c3b92560405160405180910390a4505050565b6000610bb9611d37565b6001546000540303905090565b610bd1838383611d3c565b505050565b6000806000600a6000868152602001908152602001600020805490501415610c05576000915060009050610da1565b6000600a6000868152602001908152602001600020805480602002602001604051908101604052809291908181526020016000905b82821015610cfc578382906000526020600020016040518060400160405290816000820160009054906101000a900473ffffffffffffffffffffffffffffffffffffffff1673ffffffffffffffffffffffffffffffffffffffff1673ffffffffffffffffffffffffffffffffffffffff1681526020016000820160149054906101000a90046bffffffffffffffffffffffff166bffffffffffffffffffffffff166bffffffffffffffffffffffff168152505081526020019060010190610c3a565b50505050905080600081518110610d1657610d15612fae565b5b6020026020010151600001519250600080600090505b8251811015610d8257828181518110610d4857610d47612fae565b5b6020026020010151602001516bffffffffffffffffffffffff1682610d6d919061300c565b91508080610d7a90613062565b915050610d2c565b506127108582610d9291906130ab565b610d9c9190613134565b925050505b9250929050565b6000610db2610baf565b9050601254811115610dc357600080fd5b60008211610dd057600080fd5b610dd933610ef9565b610df3576001610de857600080fd5b610df28383611fb0565b5b505050565b60001515610e0584610ef9565b15151415610e1857610e178383611898565b5b610e23838383610bc6565b505050565b610e30611fce565b73ffffffffffffffffffffffffffffffffffffffff16610e4e611209565b73ffffffffffffffffffffffffffffffffffffffff1614610ea4576040517f08c379a0000000000000000000000000000000000000000000000000000000008152600401610e9b906131b1565b60405180910390fd5b80600f8190555050565b601360009054906101000a900460ff1681565b600d60009054906101000a900473ffffffffffffffffffffffffffffffffffffffff1681565b6000610ef282611c61565b9050919050565b600080600090505b600c80549050811015610f9d578273ffffffffffffffffffffffffffffffffffffffff16600c8281548110610f3957610f38612fae565b5b9060005260206000200160009054906101000a900473ffffffffffffffffffffffffffffffffffffffff1673ffffffffffffffffffffffffffffffffffffffff161415610f8a576001915050610f9f565b8080610f9590613062565b915050610f01565b505b919050565b60108054610fb190612f7c565b80601f0160208091040260200160405190810160405280929190818152602001828054610fdd90612f7c565b801561102a5780601f10610fff5761010080835404028352916020019161102a565b820191906000526020600020905b81548152906001019060200180831161100d57829003601f168201915b505050505081565b6060600c8054806020026020016040519081016040528092919081815260200182805480156110b657602002820191906000526020600020905b8160009054906101000a900473ffffffffffffffffffffffffffffffffffffffff1673ffffffffffffffffffffffffffffffffffffffff168152602001906001019080831161106c575b5050505050905090565b60008073ffffffffffffffffffffffffffffffffffffffff168273ffffffffffffffffffffffffffffffffffffffff161415611128576040517f8f4eb60400000000000000000000000000000000000000000000000000000000815260040160405180910390fd5b67ffffffffffffffff600560008473ffffffffffffffffffffffffffffffffffffffff1673ffffffffffffffffffffffffffffffffffffffff16815260200190815260200160002054169050919050565b611181611fce565b73ffffffffffffffffffffffffffffffffffffffff1661119f611209565b73ffffffffffffffffffffffffffffffffffffffff16146111f5576040517f08c379a00000000000000000000000000000000000000000000000000000000081526004016111ec906131b1565b60405180910390fd5b6111ff6000611fd6565b565b600092915050565b6000600860009054906101000a900473ffffffffffffffffffffffffffffffffffffffff16905090565b60606003805461124290612f7c565b80601f016020809104026020016040519081016040528092919081815260200182805461126e90612f7c565b80156112bb5780601f10611290576101008083540402835291602001916112bb565b820191906000526020600020905b81548152906001019060200180831161129e57829003601f168201915b5050505050905090565b6112cd611d2f565b73ffffffffffffffffffffffffffffffffffffffff168273ffffffffffffffffffffffffffffffffffffffff161415611332576040517fb06307db00000000000000000000000000000000000000000000000000000000815260040160405180910390fd5b806007600061133f611d2f565b73ffffffffffffffffffffffffffffffffffffffff1673ffffffffffffffffffffffffffffffffffffffff16815260200190815260200160002060008473ffffffffffffffffffffffffffffffffffffffff1673ffffffffffffffffffffffffffffffffffffffff16815260200190815260200160002060006101000a81548160ff0219169083151502179055508173ffffffffffffffffffffffffffffffffffffffff166113ec611d2f565b73ffffffffffffffffffffffffffffffffffffffff167f17307eab39ab6107e8899845ad3d59bd9653f200f220920489ca2b5937696c31836040516114319190612780565b60405180910390a35050565b611445611fce565b73ffffffffffffffffffffffffffffffffffffffff16611463611209565b73ffffffffffffffffffffffffffffffffffffffff16146114b9576040517f08c379a00000000000000000000000000000000000000000000000000000000081526004016114b0906131b1565b60405180910390fd5b600260095414156114ff576040517f08c379a00000000000000000000000000000000000000000000000000000000081526004016114f69061321d565b60405180910390fd5b600260098190555060003373ffffffffffffffffffffffffffffffffffffffff164760405161152d9061326e565b60006040518083038185875af1925050503d806000811461156a576040519150601f19603f3d011682016040523d82523d6000602084013e61156f565b606091505b50509050806115b3576040517f08c379a00000000000000000000000000000000000000000000000000000000081526004016115aa906132cf565b60405180910390fd5b506001600981905550565b600f5481565b6115cf848484611d3c565b60008373ffffffffffffffffffffffffffffffffffffffff163b14611631576115fa8484848461209c565b611630576040517fd1a57ed600000000000000000000000000000000000000000000000000000000815260040160405180910390fd5b5b50505050565b6011805461164490612f7c565b80601f016020809104026020016040519081016040528092919081815260200182805461167090612f7c565b80156116bd5780601f10611692576101008083540402835291602001916116bd565b820191906000526020600020905b8154815290600101906020018083116116a057829003601f168201915b505050505081565b60606116d082611c02565b61170f576040517f08c379a000000000000000000000000000000000000000000000000000000000815260040161170690613361565b60405180910390fd5b60006117196121ed565b9050600081511161175f576040518060400160405280601c81526020017f68747470733a2f2f6d7574746572636f72702e636f6d2f6572726f720000000081525061178e565b601061176a84612204565b601160405160200161177e93929190613451565b6040516020818303038152906040525b915050919050565b6060600a6000838152602001908152602001600020805480602002602001604051908101604052809291908181526020016000905b8282101561188d578382906000526020600020016040518060400160405290816000820160009054906101000a900473ffffffffffffffffffffffffffffffffffffffff1673ffffffffffffffffffffffffffffffffffffffff1673ffffffffffffffffffffffffffffffffffffffff1681526020016000820160149054906101000a90046bffffffffffffffffffffffff166bffffffffffffffffffffffff166bffffffffffffffffffffffff1681525050815260200190600101906117cb565b505050509050919050565b7f3f3483d0995db4c081e0101ef6753bef457833c20605cd871de61dcb48085a9a8282346040516118cb93929190613482565b60405180910390a1600f5434116118e157600080fd5b60006064600e54346118f391906130ab565b6118fd9190613134565b905061190b82600e54612365565b60008273ffffffffffffffffffffffffffffffffffffffff16823461193091906134b9565b60405161193c9061326e565b60006040518083038185875af1925050503d8060008114611979576040519150601f19603f3d011682016040523d82523d6000602084013e61197e565b606091505b505090508061198c57600080fd5b50505050565b600c81815481106119a257600080fd5b906000526020600020016000915054906101000a900473ffffffffffffffffffffffffffffffffffffffff1681565b60125481565b6119df611fce565b73ffffffffffffffffffffffffffffffffffffffff166119fd611209565b73ffffffffffffffffffffffffffffffffffffffff1614611a53576040517f08c379a0000000000000000000000000000000000000000000000000000000008152600401611a4a906131b1565b60405180910390fd5b80601360006101000a81548160ff02191690831515021790555050565b6000600760008473ffffffffffffffffffffffffffffffffffffffff1673ffffffffffffffffffffffffffffffffffffffff16815260200190815260200160002060008373ffffffffffffffffffffffffffffffffffffffff1673ffffffffffffffffffffffffffffffffffffffff16815260200190815260200160002060009054906101000a900460ff16905092915050565b611b0c611fce565b73ffffffffffffffffffffffffffffffffffffffff16611b2a611209565b73ffffffffffffffffffffffffffffffffffffffff1614611b80576040517f08c379a0000000000000000000000000000000000000000000000000000000008152600401611b77906131b1565b60405180910390fd5b600073ffffffffffffffffffffffffffffffffffffffff168173ffffffffffffffffffffffffffffffffffffffff161415611bf0576040517f08c379a0000000000000000000000000000000000000000000000000000000008152600401611be79061355f565b60405180910390fd5b611bf981611fd6565b50565b600e5481565b600081611c0d611d37565b11158015611c1c575060005482105b8015611c5a575060007c0100000000000000000000000000000000000000000000000000000000600460008581526020019081526020016000205416145b9050919050565b60008082905080611c70611d37565b11611cf857600054811015611cf75760006004600083815260200190815260200160002054905060007c010000000000000000000000000000000000000000000000000000000082161415611cf5575b6000811415611ceb576004600083600190039350838152602001908152602001600020549050611cc0565b8092505050611d2a565b505b5b6040517fdf2d9b4200000000000000000000000000000000000000000000000000000000815260040160405180910390fd5b919050565b600033905090565b600090565b6000611d4782611c61565b90508373ffffffffffffffffffffffffffffffffffffffff168173ffffffffffffffffffffffffffffffffffffffff1614611dae576040517fa114810000000000000000000000000000000000000000000000000000000000815260040160405180910390fd5b611dbb84848460016123f7565b6006600083815260200190815260200160002060006101000a81549073ffffffffffffffffffffffffffffffffffffffff0219169055600560008573ffffffffffffffffffffffffffffffffffffffff1673ffffffffffffffffffffffffffffffffffffffff168152602001908152602001600020600081546001900391905081905550600560008473ffffffffffffffffffffffffffffffffffffffff1673ffffffffffffffffffffffffffffffffffffffff16815260200190815260200160002060008154600101919050819055507c020000000000000000000000000000000000000000000000000000000060a042901b611eb8856123fd565b1717600460008481526020019081526020016000208190555060007c020000000000000000000000000000000000000000000000000000000082161415611f42576000600183019050600060046000838152602001908152602001600020541415611f40576000548114611f3f578160046000838152602001908152602001600020819055505b5b505b818373ffffffffffffffffffffffffffffffffffffffff168573ffffffffffffffffffffffffffffffffffffffff167fddf252ad1be2c89b69c2b068fc378daa952ba7f163c4a11628f55a4df523b3ef60405160405180910390a4611faa8484846001612407565b50505050565b611fca82826040518060200160405280600081525061240d565b5050565b600033905090565b6000600860009054906101000a900473ffffffffffffffffffffffffffffffffffffffff16905081600860006101000a81548173ffffffffffffffffffffffffffffffffffffffff021916908373ffffffffffffffffffffffffffffffffffffffff1602179055508173ffffffffffffffffffffffffffffffffffffffff168173ffffffffffffffffffffffffffffffffffffffff167f8be0079c531659141344cd1fd0a4f28419497f9722a3daafe3b4186f6b6457e060405160405180910390a35050565b60008373ffffffffffffffffffffffffffffffffffffffff1663150b7a026120c2611d2f565b8786866040518563ffffffff1660e01b81526004016120e494939291906135d4565b6020604051808303816000875af192505050801561212057506040513d601f19601f8201168201806040525081019061211d9190613635565b60015b61219a573d8060008114612150576040519150601f19603f3d011682016040523d82523d6000602084013e612155565b606091505b50600081511415612192576040517fd1a57ed600000000000000000000000000000000000000000000000000000000815260040160405180910390fd5b805181602001fd5b63150b7a0260e01b7bffffffffffffffffffffffffffffffffffffffffffffffffffffffff1916817bffffffffffffffffffffffffffffffffffffffffffffffffffffffff191614915050949350505050565b606060405180602001604052806000815250905090565b6060600082141561224c576040518060400160405280600181526020017f30000000000000000000000000000000000000000000000000000000000000008152509050612360565b600082905060005b6000821461227e57808061226790613062565b915050600a826122779190613134565b9150612254565b60008167ffffffffffffffff81111561229a57612299612bea565b5b6040519080825280601f01601f1916602001820160405280156122cc5781602001600182028036833780820191505090505b5090505b60008514612359576001826122e591906134b9565b9150600a856122f49190613662565b6030612300919061300c565b60f81b81838151811061231657612315612fae565b5b60200101907effffffffffffffffffffffffffffffffffffffffffffffffffffffffffffff1916908160001a905350600a856123529190613134565b94506122d0565b8093505050505b919050565b60008290508073ffffffffffffffffffffffffffffffffffffffff166323b872dd8461238f611209565b856040518463ffffffff1660e01b81526004016123ae93929190613482565b6020604051808303816000875af11580156123cd573d6000803e3d6000fd5b505050506040513d601f19601f820116820180604052508101906123f191906136a8565b50505050565b50505050565b6000819050919050565b50505050565b600080549050600073ffffffffffffffffffffffffffffffffffffffff168473ffffffffffffffffffffffffffffffffffffffff16141561247a576040517f2e07630000000000000000000000000000000000000000000000000000000000815260040160405180910390fd5b60008314156124b5576040517fb562e8dd00000000000000000000000000000000000000000000000000000000815260040160405180910390fd5b6124c260008583866123f7565b600160406001901b178302600560008673ffffffffffffffffffffffffffffffffffffffff1673ffffffffffffffffffffffffffffffffffffffff1681526020019081526020016000206000828254019250508190555060e1612527600185146126c2565b901b60a042901b612537866123fd565b1717600460008381526020019081526020016000208190555060008190506000848201905060008673ffffffffffffffffffffffffffffffffffffffff163b1461263b575b818673ffffffffffffffffffffffffffffffffffffffff16600073ffffffffffffffffffffffffffffffffffffffff167fddf252ad1be2c89b69c2b068fc378daa952ba7f163c4a11628f55a4df523b3ef60405160405180910390a46125eb600087848060010195508761209c565b612621576040517fd1a57ed600000000000000000000000000000000000000000000000000000000815260040160405180910390fd5b80821061257c57826000541461263657600080fd5b6126a6565b5b818060010192508673ffffffffffffffffffffffffffffffffffffffff16600073ffffffffffffffffffffffffffffffffffffffff167fddf252ad1be2c89b69c2b068fc378daa952ba7f163c4a11628f55a4df523b3ef60405160405180910390a480821061263c575b8160008190555050506126bc6000858386612407565b50505050565b6000819050919050565b6000604051905090565b600080fd5b600080fd5b60007fffffffff0000000000000000000000000000000000000000000000000000000082169050919050565b612715816126e0565b811461272057600080fd5b50565b6000813590506127328161270c565b92915050565b60006020828403121561274e5761274d6126d6565b5b600061275c84828501612723565b91505092915050565b60008115159050919050565b61277a81612765565b82525050565b60006020820190506127956000830184612771565b92915050565b600081519050919050565b600082825260208201905092915050565b60005b838110156127d55780820151818401526020810190506127ba565b838111156127e4576000848401525b50505050565b6000601f19601f8301169050919050565b60006128068261279b565b61281081856127a6565b93506128208185602086016127b7565b612829816127ea565b840191505092915050565b6000602082019050818103600083015261284e81846127fb565b905092915050565b6000819050919050565b61286981612856565b811461287457600080fd5b50565b60008135905061288681612860565b92915050565b6000602082840312156128a2576128a16126d6565b5b60006128b084828501612877565b91505092915050565b600073ffffffffffffffffffffffffffffffffffffffff82169050919050565b60006128e4826128b9565b9050919050565b6128f4816128d9565b82525050565b600060208201905061290f60008301846128eb565b92915050565b61291e816128d9565b811461292957600080fd5b50565b60008135905061293b81612915565b92915050565b60008060408385031215612958576129576126d6565b5b60006129668582860161292c565b925050602061297785828601612877565b9150509250929050565b61298a81612856565b82525050565b60006020820190506129a56000830184612981565b92915050565b6000806000606084860312156129c4576129c36126d6565b5b60006129d28682870161292c565b93505060206129e38682870161292c565b92505060406129f486828701612877565b9150509250925092565b60008060408385031215612a1557612a146126d6565b5b6000612a2385828601612877565b9250506020612a3485828601612877565b9150509250929050565b6000604082019050612a5360008301856128eb565b612a606020830184612981565b9392505050565b600060208284031215612a7d57612a7c6126d6565b5b6000612a8b8482850161292c565b91505092915050565b600081519050919050565b600082825260208201905092915050565b6000819050602082019050919050565b612ac9816128d9565b82525050565b6000612adb8383612ac0565b60208301905092915050565b6000602082019050919050565b6000612aff82612a94565b612b098185612a9f565b9350612b1483612ab0565b8060005b83811015612b45578151612b2c8882612acf565b9750612b3783612ae7565b925050600181019050612b18565b5085935050505092915050565b60006020820190508181036000830152612b6c8184612af4565b905092915050565b612b7d81612765565b8114612b8857600080fd5b50565b600081359050612b9a81612b74565b92915050565b60008060408385031215612bb757612bb66126d6565b5b6000612bc58582860161292c565b9250506020612bd685828601612b8b565b9150509250929050565b600080fd5b600080fd5b7f4e487b7100000000000000000000000000000000000000000000000000000000600052604160045260246000fd5b612c22826127ea565b810181811067ffffffffffffffff82111715612c4157612c40612bea565b5b80604052505050565b6000612c546126cc565b9050612c608282612c19565b919050565b600067ffffffffffffffff821115612c8057612c7f612bea565b5b612c89826127ea565b9050602081019050919050565b82818337600083830152505050565b6000612cb8612cb384612c65565b612c4a565b905082815260208101848484011115612cd457612cd3612be5565b5b612cdf848285612c96565b509392505050565b600082601f830112612cfc57612cfb612be0565b5b8135612d0c848260208601612ca5565b91505092915050565b60008060008060808587031215612d2f57612d2e6126d6565b5b6000612d3d8782880161292c565b9450506020612d4e8782880161292c565b9350506040612d5f87828801612877565b925050606085013567ffffffffffffffff811115612d8057612d7f6126db565b5b612d8c87828801612ce7565b91505092959194509250565b600081519050919050565b600082825260208201905092915050565b6000819050602082019050919050565b6000612dcf826128b9565b9050919050565b612ddf81612dc4565b82525050565b60006bffffffffffffffffffffffff82169050919050565b612e0681612de5565b82525050565b604082016000820151612e226000850182612dd6565b506020820151612e356020850182612dfd565b50505050565b6000612e478383612e0c565b60408301905092915050565b6000602082019050919050565b6000612e6b82612d98565b612e758185612da3565b9350612e8083612db4565b8060005b83811015612eb1578151612e988882612e3b565b9750612ea383612e53565b925050600181019050612e84565b5085935050505092915050565b60006020820190508181036000830152612ed88184612e60565b905092915050565b60008060408385031215612ef757612ef66126d6565b5b6000612f058582860161292c565b9250506020612f168582860161292c565b9150509250929050565b600060208284031215612f3657612f356126d6565b5b6000612f4484828501612b8b565b91505092915050565b7f4e487b7100000000000000000000000000000000000000000000000000000000600052602260045260246000fd5b60006002820490506001821680612f9457607f821691505b60208210811415612fa857612fa7612f4d565b5b50919050565b7f4e487b7100000000000000000000000000000000000000000000000000000000600052603260045260246000fd5b7f4e487b7100000000000000000000000000000000000000000000000000000000600052601160045260246000fd5b600061301782612856565b915061302283612856565b9250827fffffffffffffffffffffffffffffffffffffffffffffffffffffffffffffffff0382111561305757613056612fdd565b5b828201905092915050565b600061306d82612856565b91507fffffffffffffffffffffffffffffffffffffffffffffffffffffffffffffffff8214156130a05761309f612fdd565b5b600182019050919050565b60006130b682612856565b91506130c183612856565b9250817fffffffffffffffffffffffffffffffffffffffffffffffffffffffffffffffff04831182151516156130fa576130f9612fdd565b5b828202905092915050565b7f4e487b7100000000000000000000000000000000000000000000000000000000600052601260045260246000fd5b600061313f82612856565b915061314a83612856565b92508261315a57613159613105565b5b828204905092915050565b7f4f776e61626c653a2063616c6c6572206973206e6f7420746865206f776e6572600082015250565b600061319b6020836127a6565b91506131a682613165565b602082019050919050565b600060208201905081810360008301526131ca8161318e565b9050919050565b7f5265656e7472616e637947756172643a207265656e7472616e742063616c6c00600082015250565b6000613207601f836127a6565b9150613212826131d1565b602082019050919050565b60006020820190508181036000830152613236816131fa565b9050919050565b600081905092915050565b50565b600061325860008361323d565b915061326382613248565b600082019050919050565b60006132798261324b565b9150819050919050565b7f5472616e73666572206661696c65642e00000000000000000000000000000000600082015250565b60006132b96010836127a6565b91506132c482613283565b602082019050919050565b600060208201905081810360008301526132e8816132ac565b9050919050565b7f4552433732314d657461646174613a2055524920717565727920666f72206e6f60008201527f6e6578697374656e7420746f6b656e0000000000000000000000000000000000602082015250565b600061334b602f836127a6565b9150613356826132ef565b604082019050919050565b6000602082019050818103600083015261337a8161333e565b9050919050565b600081905092915050565b60008190508160005260206000209050919050565b600081546133ae81612f7c565b6133b88186613381565b945060018216600081146133d357600181146133e457613417565b60ff19831686528186019350613417565b6133ed8561338c565b60005b8381101561340f578154818901526001820191506020810190506133f0565b838801955050505b50505092915050565b600061342b8261279b565b6134358185613381565b93506134458185602086016127b7565b80840191505092915050565b600061345d82866133a1565b91506134698285613420565b915061347582846133a1565b9150819050949350505050565b600060608201905061349760008301866128eb565b6134a460208301856128eb565b6134b16040830184612981565b949350505050565b60006134c482612856565b91506134cf83612856565b9250828210156134e2576134e1612fdd565b5b828203905092915050565b7f4f776e61626c653a206e6577206f776e657220697320746865207a65726f206160008201527f6464726573730000000000000000000000000000000000000000000000000000602082015250565b60006135496026836127a6565b9150613554826134ed565b604082019050919050565b600060208201905081810360008301526135788161353c565b9050919050565b600081519050919050565b600082825260208201905092915050565b60006135a68261357f565b6135b0818561358a565b93506135c08185602086016127b7565b6135c9816127ea565b840191505092915050565b60006080820190506135e960008301876128eb565b6135f660208301866128eb565b6136036040830185612981565b8181036060830152613615818461359b565b905095945050505050565b60008151905061362f8161270c565b92915050565b60006020828403121561364b5761364a6126d6565b5b600061365984828501613620565b91505092915050565b600061366d82612856565b915061367883612856565b92508261368857613687613105565b5b828206905092915050565b6000815190506136a281612b74565b92915050565b6000602082840312156136be576136bd6126d6565b5b60006136cc84828501613693565b9150509291505056fea2646970667358221220c7ea2ca46c273869a7e3553dc7ee7b7509792019cefaa8e82ace88bb14e3b09c64736f6c634300080c0033",
  "linkReferences": {},
  "deployedLinkReferences": {}
}